{
  "_format": "hh3-artifact-1",
  "contractName": "DEXNFTMarket",
  "sourceName": "contracts/DEXNFTMarket.sol",
  "abi": [
    {
      "inputs": [
        {
          "internalType": "address",
          "name": "dexAddress",
          "type": "address"
        },
        {
          "internalType": "address",
          "name": "nftAddress",
          "type": "address"
        }
      ],
      "stateMutability": "nonpayable",
      "type": "constructor"
    },
    {
      "anonymous": false,
      "inputs": [
        {
          "indexed": true,
          "internalType": "uint256",
          "name": "tokenId",
          "type": "uint256"
        },
        {
          "indexed": false,
          "internalType": "address",
          "name": "winner",
          "type": "address"
        }
      ],
      "name": "AuctionEnded",
      "type": "event"
    },
    {
      "anonymous": false,
      "inputs": [
        {
          "indexed": true,
          "internalType": "uint256",
          "name": "tokenId",
          "type": "uint256"
        }
      ],
      "name": "AuctionStarted",
      "type": "event"
    },
    {
      "anonymous": false,
      "inputs": [
        {
          "indexed": true,
          "internalType": "uint256",
          "name": "tokenId",
          "type": "uint256"
        },
        {
          "indexed": true,
          "internalType": "address",
          "name": "bidder",
          "type": "address"
        },
        {
          "indexed": false,
          "internalType": "uint256",
          "name": "amount",
          "type": "uint256"
        }
      ],
      "name": "BidPlaced",
      "type": "event"
    },
    {
      "anonymous": false,
      "inputs": [
        {
          "indexed": true,
          "internalType": "address",
          "name": "borrower",
          "type": "address"
        }
      ],
      "name": "DexLoanClosed",
      "type": "event"
    },
    {
      "anonymous": false,
      "inputs": [
        {
          "indexed": true,
          "internalType": "address",
          "name": "borrower",
          "type": "address"
        },
        {
          "indexed": false,
          "internalType": "uint256",
          "name": "collateral",
          "type": "uint256"
        },
        {
          "indexed": false,
          "internalType": "uint256",
          "name": "borrowedETH",
          "type": "uint256"
        }
      ],
      "name": "DexLoanOpened",
      "type": "event"
    },
    {
      "anonymous": false,
      "inputs": [
        {
          "indexed": true,
          "internalType": "uint256",
          "name": "tokenId",
          "type": "uint256"
        },
        {
          "indexed": true,
          "internalType": "address",
          "name": "seller",
          "type": "address"
        },
        {
          "indexed": false,
          "internalType": "uint256",
          "name": "price",
          "type": "uint256"
        }
      ],
      "name": "NFTListed",
      "type": "event"
    },
    {
      "anonymous": false,
      "inputs": [
        {
          "indexed": true,
          "internalType": "uint256",
          "name": "tokenId",
          "type": "uint256"
        },
        {
          "indexed": false,
          "internalType": "address",
          "name": "lender",
          "type": "address"
        }
      ],
      "name": "NFTLoanFunded",
      "type": "event"
    },
    {
      "anonymous": false,
      "inputs": [
        {
          "indexed": true,
          "internalType": "uint256",
          "name": "tokenId",
          "type": "uint256"
        },
        {
          "indexed": false,
          "internalType": "uint256",
          "name": "requestedETH",
          "type": "uint256"
        }
      ],
      "name": "NFTLoanRequested",
      "type": "event"
    },
    {
      "anonymous": false,
      "inputs": [
        {
          "indexed": true,
          "internalType": "uint256",
          "name": "tokenId",
          "type": "uint256"
        },
        {
          "indexed": true,
          "internalType": "address",
          "name": "buyer",
          "type": "address"
        }
      ],
      "name": "NFTSold",
      "type": "event"
    },
    {
      "stateMutability": "payable",
      "type": "fallback"
    },
    {
      "inputs": [
        {
          "internalType": "uint256",
          "name": "",
          "type": "uint256"
        }
      ],
      "name": "auctions",
      "outputs": [
        {
          "internalType": "address",
          "name": "seller",
          "type": "address"
        },
        {
          "internalType": "address",
          "name": "nftContract",
          "type": "address"
        },
        {
          "internalType": "uint256",
          "name": "tokenId",
          "type": "uint256"
        },
        {
          "internalType": "uint256",
          "name": "minPrice",
          "type": "uint256"
        },
        {
          "internalType": "uint256",
          "name": "highestBid",
          "type": "uint256"
        },
        {
          "internalType": "address",
          "name": "highestBidder",
          "type": "address"
        },
        {
          "internalType": "bool",
          "name": "inDEX",
          "type": "bool"
        },
        {
          "internalType": "uint256",
          "name": "endTime",
          "type": "uint256"
        },
        {
          "internalType": "bool",
          "name": "active",
          "type": "bool"
        }
      ],
      "stateMutability": "view",
      "type": "function"
    },
    {
      "inputs": [
        {
          "internalType": "uint256",
          "name": "tokenId",
          "type": "uint256"
        }
      ],
      "name": "bid",
      "outputs": [],
      "stateMutability": "payable",
      "type": "function"
    },
    {
      "inputs": [
        {
          "internalType": "uint256",
          "name": "collateralDEX",
          "type": "uint256"
        }
      ],
      "name": "borrowETHWithDEX",
      "outputs": [],
      "stateMutability": "nonpayable",
      "type": "function"
    },
    {
      "inputs": [
        {
          "internalType": "uint256",
          "name": "tokenId",
          "type": "uint256"
        }
      ],
      "name": "buyNFT",
      "outputs": [],
      "stateMutability": "payable",
      "type": "function"
    },
    {
      "inputs": [
        {
          "internalType": "uint256",
          "name": "tokenId",
          "type": "uint256"
        }
      ],
      "name": "claimNFTDefault",
      "outputs": [],
      "stateMutability": "nonpayable",
      "type": "function"
    },
    {
      "inputs": [],
      "name": "dex",
      "outputs": [
        {
          "internalType": "contract IDEXToken",
          "name": "",
          "type": "address"
        }
      ],
      "stateMutability": "view",
      "type": "function"
    },
    {
      "inputs": [],
      "name": "dexLoanInterestBps",
      "outputs": [
        {
          "internalType": "uint256",
          "name": "",
          "type": "uint256"
        }
      ],
      "stateMutability": "view",
      "type": "function"
    },
    {
      "inputs": [
        {
          "internalType": "address",
          "name": "",
          "type": "address"
        }
      ],
      "name": "dexLoans",
      "outputs": [
        {
          "internalType": "address",
          "name": "borrower",
          "type": "address"
        },
        {
          "internalType": "uint256",
          "name": "collateralDEX",
          "type": "uint256"
        },
        {
          "internalType": "uint256",
          "name": "borrowedETH",
          "type": "uint256"
        },
        {
          "internalType": "uint256",
          "name": "startTime",
          "type": "uint256"
        },
        {
          "internalType": "uint256",
          "name": "nextPaymentDue",
          "type": "uint256"
        },
        {
          "internalType": "bool",
          "name": "active",
          "type": "bool"
        }
      ],
      "stateMutability": "view",
      "type": "function"
    },
    {
      "inputs": [],
      "name": "earlyCloseFeeBps",
      "outputs": [
        {
          "internalType": "uint256",
          "name": "",
          "type": "uint256"
        }
      ],
      "stateMutability": "view",
      "type": "function"
    },
    {
      "inputs": [
        {
          "internalType": "uint256",
          "name": "tokenId",
          "type": "uint256"
        },
        {
          "internalType": "uint256",
          "name": "dexBacking",
          "type": "uint256"
        }
      ],
      "name": "fundNFTLoan",
      "outputs": [],
      "stateMutability": "nonpayable",
      "type": "function"
    },
    {
      "inputs": [
        {
          "internalType": "address",
          "name": "nftContract",
          "type": "address"
        },
        {
          "internalType": "uint256",
          "name": "tokenId",
          "type": "uint256"
        },
        {
          "internalType": "uint256",
          "name": "price",
          "type": "uint256"
        },
        {
          "internalType": "bool",
          "name": "inDEX",
          "type": "bool"
        }
      ],
      "name": "listNFT",
      "outputs": [],
      "stateMutability": "nonpayable",
      "type": "function"
    },
    {
      "inputs": [
        {
          "internalType": "uint256",
          "name": "",
          "type": "uint256"
        }
      ],
      "name": "listings",
      "outputs": [
        {
          "internalType": "address",
          "name": "seller",
          "type": "address"
        },
        {
          "internalType": "address",
          "name": "nftContract",
          "type": "address"
        },
        {
          "internalType": "uint256",
          "name": "tokenId",
          "type": "uint256"
        },
        {
          "internalType": "uint256",
          "name": "price",
          "type": "uint256"
        },
        {
          "internalType": "bool",
          "name": "inDEX",
          "type": "bool"
        },
        {
          "internalType": "bool",
          "name": "active",
          "type": "bool"
        }
      ],
      "stateMutability": "view",
      "type": "function"
    },
    {
      "inputs": [
        {
          "internalType": "uint256",
          "name": "",
          "type": "uint256"
        }
      ],
      "name": "nftLoans",
      "outputs": [
        {
          "internalType": "address",
          "name": "borrower",
          "type": "address"
        },
        {
          "internalType": "address",
          "name": "nftContract",
          "type": "address"
        },
        {
          "internalType": "uint256",
          "name": "tokenId",
          "type": "uint256"
        },
        {
          "internalType": "uint256",
          "name": "requestedETH",
          "type": "uint256"
        },
        {
          "internalType": "uint256",
          "name": "interestRateBps",
          "type": "uint256"
        },
        {
          "internalType": "uint256",
          "name": "duration",
          "type": "uint256"
        },
        {
          "internalType": "address",
          "name": "lender",
          "type": "address"
        },
        {
          "internalType": "uint256",
          "name": "lenderDEXLocked",
          "type": "uint256"
        },
        {
          "internalType": "bool",
          "name": "funded",
          "type": "bool"
        },
        {
          "internalType": "bool",
          "name": "active",
          "type": "bool"
        }
      ],
      "stateMutability": "view",
      "type": "function"
    },
    {
      "inputs": [],
      "name": "owner",
      "outputs": [
        {
          "internalType": "address",
          "name": "",
          "type": "address"
        }
      ],
      "stateMutability": "view",
      "type": "function"
    },
    {
      "inputs": [],
      "name": "pawNFT",
      "outputs": [
        {
          "internalType": "contract IPawNFT",
          "name": "",
          "type": "address"
        }
      ],
      "stateMutability": "view",
      "type": "function"
    },
    {
      "inputs": [],
      "name": "paymentCycle",
      "outputs": [
        {
          "internalType": "uint256",
          "name": "",
          "type": "uint256"
        }
      ],
      "stateMutability": "view",
      "type": "function"
    },
    {
      "inputs": [],
      "name": "repayDEXLoan",
      "outputs": [],
      "stateMutability": "payable",
      "type": "function"
    },
    {
      "inputs": [
        {
          "internalType": "uint256",
          "name": "tokenId",
          "type": "uint256"
        }
      ],
      "name": "repayNFTLoan",
      "outputs": [],
      "stateMutability": "payable",
      "type": "function"
    },
    {
      "inputs": [
        {
          "internalType": "address",
          "name": "nftContract",
          "type": "address"
        },
        {
          "internalType": "uint256",
          "name": "tokenId",
          "type": "uint256"
        },
        {
          "internalType": "uint256",
          "name": "requestedETH",
          "type": "uint256"
        },
        {
          "internalType": "uint256",
          "name": "interestRateBps",
          "type": "uint256"
        },
        {
          "internalType": "uint256",
          "name": "duration",
          "type": "uint256"
        }
      ],
      "name": "requestNFTLoan",
      "outputs": [],
      "stateMutability": "nonpayable",
      "type": "function"
    },
    {
      "inputs": [
        {
          "internalType": "uint256",
          "name": "newFee",
          "type": "uint256"
        }
      ],
      "name": "setEarlyFee",
      "outputs": [],
      "stateMutability": "nonpayable",
      "type": "function"
    },
    {
      "inputs": [
        {
          "internalType": "uint256",
          "name": "newRate",
          "type": "uint256"
        }
      ],
      "name": "setInterest",
      "outputs": [],
      "stateMutability": "nonpayable",
      "type": "function"
    },
    {
      "inputs": [
        {
          "internalType": "uint256",
          "name": "newCycle",
          "type": "uint256"
        }
      ],
      "name": "setPaymentCycle",
      "outputs": [],
      "stateMutability": "nonpayable",
      "type": "function"
    },
    {
      "inputs": [
        {
          "internalType": "address",
          "name": "nftContract",
          "type": "address"
        },
        {
          "internalType": "uint256",
          "name": "tokenId",
          "type": "uint256"
        },
        {
          "internalType": "uint256",
          "name": "minPrice",
          "type": "uint256"
        },
        {
          "internalType": "bool",
          "name": "inDEX",
          "type": "bool"
        },
        {
          "internalType": "uint256",
          "name": "duration",
          "type": "uint256"
        }
      ],
      "name": "startAuction",
      "outputs": [],
      "stateMutability": "nonpayable",
      "type": "function"
    },
    {
      "stateMutability": "payable",
      "type": "receive"
    }
  ],
  "bytecode": "0x608060405234801561000f575f5ffd5b50604051613cd5380380613cd583398181016040528101906100319190610171565b3360025f6101000a81548173ffffffffffffffffffffffffffffffffffffffff021916908373ffffffffffffffffffffffffffffffffffffffff160217905550815f5f6101000a81548173ffffffffffffffffffffffffffffffffffffffff021916908373ffffffffffffffffffffffffffffffffffffffff1602179055508060015f6101000a81548173ffffffffffffffffffffffffffffffffffffffff021916908373ffffffffffffffffffffffffffffffffffffffff1602179055506101f460038190555061012c60048190555062278d0060058190555050506101af565b5f5ffd5b5f73ffffffffffffffffffffffffffffffffffffffff82169050919050565b5f61014082610117565b9050919050565b61015081610136565b811461015a575f5ffd5b50565b5f8151905061016b81610147565b92915050565b5f5f6040838503121561018757610186610113565b5b5f6101948582860161015d565b92505060206101a58582860161015d565b9150509250929050565b613b19806101bc5f395ff3fe608060405260043610610143575f3560e01c80637f7bf343116100b5578063b3f515d51161006e578063b3f515d514610408578063b5c73b9314610430578063cc2e031c14610458578063de74e57b14610482578063e4049b03146104c3578063f4263c8f146104eb57610144565b80637f7bf343146102f55780638da5cb5b1461031f5780639aa5748f14610349578063ad6627ef1461038e578063af032e77146103b6578063b0b66e79146103e057610144565b80634dcbadcf116101075780634dcbadcf146101ff57806351ed82881461022757806352716e5114610243578063571a26a01461026b578063692058c2146102af578063722d9964146102d957610144565b80631c45cc20146101465780631d086720146101505780632239800b146101785780633f51e0c9146101a2578063454a2ab3146101e357610144565b5b005b61014e610513565b005b34801561015b575f5ffd5b5061017660048036038101906101719190612948565b61075c565b005b348015610183575f5ffd5b5061018c6107f5565b6040516101999190612982565b60405180910390f35b3480156101ad575f5ffd5b506101c860048036038101906101c391906129f5565b6107fb565b6040516101da96959493929190612a49565b60405180910390f35b6101fd60048036038101906101f89190612948565b61085e565b005b34801561020a575f5ffd5b5061022560048036038101906102209190612948565b610af5565b005b610241600480360381019061023c9190612948565b610d00565b005b34801561024e575f5ffd5b5061026960048036038101906102649190612aa8565b611025565b005b348015610276575f5ffd5b50610291600480360381019061028c9190612948565b61130c565b6040516102a699989796959493929190612ae6565b60405180910390f35b3480156102ba575f5ffd5b506102c36113cc565b6040516102d09190612bcc565b60405180910390f35b6102f360048036038101906102ee9190612948565b6113f0565b005b348015610300575f5ffd5b50610309611759565b6040516103169190612982565b60405180910390f35b34801561032a575f5ffd5b5061033361175f565b6040516103409190612be5565b60405180910390f35b348015610354575f5ffd5b5061036f600480360381019061036a9190612948565b611784565b6040516103859a99989796959493929190612bfe565b60405180910390f35b348015610399575f5ffd5b506103b460048036038101906103af9190612948565b61184a565b005b3480156103c1575f5ffd5b506103ca6118e3565b6040516103d79190612cb8565b60405180910390f35b3480156103eb575f5ffd5b5061040660048036038101906104019190612cfb565b611908565b005b348015610413575f5ffd5b5061042e60048036038101906104299190612d5f565b611c42565b005b34801561043b575f5ffd5b5061045660048036038101906104519190612dd6565b61203d565b005b348015610463575f5ffd5b5061046c612427565b6040516104799190612982565b60405180910390f35b34801561048d575f5ffd5b506104a860048036038101906104a39190612948565b61242d565b6040516104ba96959493929190612e4d565b60405180910390f35b3480156104ce575f5ffd5b506104e960048036038101906104e49190612948565b6124bc565b005b3480156104f6575f5ffd5b50610511600480360381019061050c9190612948565b612555565b005b5f60085f3373ffffffffffffffffffffffffffffffffffffffff1673ffffffffffffffffffffffffffffffffffffffff1681526020019081526020015f209050806005015f9054906101000a900460ff166105a3576040517f08c379a000000000000000000000000000000000000000000000000000000000815260040161059a90612f06565b60405180910390fd5b5f61271060035483600201546105b99190612f51565b6105c39190612fbf565b90505f8183600201546105d69190612fef565b90508034101561061b576040517f08c379a00000000000000000000000000000000000000000000000000000000081526004016106129061306c565b60405180910390fd5b5f836005015f6101000a81548160ff0219169083151502179055505f5f9054906101000a900473ffffffffffffffffffffffffffffffffffffffff1673ffffffffffffffffffffffffffffffffffffffff1663a9059cbb3385600101546040518363ffffffff1660e01b815260040161069592919061308a565b6020604051808303815f875af11580156106b1573d5f5f3e3d5ffd5b505050506040513d601f19601f820116820180604052508101906106d591906130c5565b610714576040517f08c379a000000000000000000000000000000000000000000000000000000000815260040161070b9061313a565b60405180910390fd5b3373ffffffffffffffffffffffffffffffffffffffff167fee7d7344b250e80a1da46a3dbbed6dcbfd85906f3ee5ea986bd8c3832171bc8f60405160405180910390a2505050565b60025f9054906101000a900473ffffffffffffffffffffffffffffffffffffffff1673ffffffffffffffffffffffffffffffffffffffff163373ffffffffffffffffffffffffffffffffffffffff16146107eb576040517f08c379a00000000000000000000000000000000000000000000000000000000081526004016107e2906131a2565b60405180910390fd5b8060038190555050565b60035481565b6008602052805f5260405f205f91509050805f015f9054906101000a900473ffffffffffffffffffffffffffffffffffffffff1690806001015490806002015490806003015490806004015490806005015f9054906101000a900460ff16905086565b5f60075f8381526020019081526020015f209050806007015f9054906101000a900460ff166108c2576040517f08c379a00000000000000000000000000000000000000000000000000000000081526004016108b99061320a565b60405180910390fd5b80600601544210610908576040517f08c379a00000000000000000000000000000000000000000000000000000000081526004016108ff90613272565b60405180910390fd5b8060040154341161094e576040517f08c379a0000000000000000000000000000000000000000000000000000000008152600401610945906132da565b60405180910390fd5b8060030154341015610995576040517f08c379a000000000000000000000000000000000000000000000000000000000815260040161098c90613342565b60405180910390fd5b5f73ffffffffffffffffffffffffffffffffffffffff16816005015f9054906101000a900473ffffffffffffffffffffffffffffffffffffffff1673ffffffffffffffffffffffffffffffffffffffff1614610a5757806005015f9054906101000a900473ffffffffffffffffffffffffffffffffffffffff1673ffffffffffffffffffffffffffffffffffffffff166108fc826004015490811502906040515f60405180830381858888f19350505050158015610a55573d5f5f3e3d5ffd5b505b34816004018190555033816005015f6101000a81548173ffffffffffffffffffffffffffffffffffffffff021916908373ffffffffffffffffffffffffffffffffffffffff1602179055503373ffffffffffffffffffffffffffffffffffffffff16827f0e54eff26401bf69b81b26f60bd85ef47f5d85275c1d268d84f68d6897431c4734604051610ae99190612982565b60405180910390a35050565b5f60095f8381526020019081526020015f209050806008015f9054906101000a900460ff16610b59576040517f08c379a0000000000000000000000000000000000000000000000000000000008152600401610b50906133aa565b60405180910390fd5b806006015f9054906101000a900473ffffffffffffffffffffffffffffffffffffffff1673ffffffffffffffffffffffffffffffffffffffff163373ffffffffffffffffffffffffffffffffffffffff1614610bea576040517f08c379a0000000000000000000000000000000000000000000000000000000008152600401610be190613412565b60405180910390fd5b80600501544211610c30576040517f08c379a0000000000000000000000000000000000000000000000000000000008152600401610c279061347a565b60405180910390fd5b806001015f9054906101000a900473ffffffffffffffffffffffffffffffffffffffff1673ffffffffffffffffffffffffffffffffffffffff166323b872dd30836006015f9054906101000a900473ffffffffffffffffffffffffffffffffffffffff16856040518463ffffffff1660e01b8152600401610cb393929190613498565b5f604051808303815f87803b158015610cca575f5ffd5b505af1158015610cdc573d5f5f3e3d5ffd5b505050505f8160080160016101000a81548160ff0219169083151502179055505050565b5f60065f8381526020019081526020015f2090508060040160019054906101000a900460ff16610d65576040517f08c379a0000000000000000000000000000000000000000000000000000000008152600401610d5c90613517565b60405180910390fd5b5f8160040160016101000a81548160ff021916908315150217905550806004015f9054906101000a900460ff1615610e9e575f5f9054906101000a900473ffffffffffffffffffffffffffffffffffffffff1673ffffffffffffffffffffffffffffffffffffffff166323b872dd33835f015f9054906101000a900473ffffffffffffffffffffffffffffffffffffffff1684600301546040518463ffffffff1660e01b8152600401610e1a93929190613498565b6020604051808303815f875af1158015610e36573d5f5f3e3d5ffd5b505050506040513d601f19601f82011682018060405250810190610e5a91906130c5565b610e99576040517f08c379a0000000000000000000000000000000000000000000000000000000008152600401610e909061357f565b60405180910390fd5b610f50565b8060030154341015610ee5576040517f08c379a0000000000000000000000000000000000000000000000000000000008152600401610edc9061306c565b60405180910390fd5b805f015f9054906101000a900473ffffffffffffffffffffffffffffffffffffffff1673ffffffffffffffffffffffffffffffffffffffff166108fc826003015490811502906040515f60405180830381858888f19350505050158015610f4e573d5f5f3e3d5ffd5b505b806001015f9054906101000a900473ffffffffffffffffffffffffffffffffffffffff1673ffffffffffffffffffffffffffffffffffffffff166323b872dd3033856040518463ffffffff1660e01b8152600401610fb093929190613498565b5f604051808303815f87803b158015610fc7575f5ffd5b505af1158015610fd9573d5f5f3e3d5ffd5b505050503373ffffffffffffffffffffffffffffffffffffffff16827ffa9b8d7a5322ce99e49fe0bb8a9dae40e0af71e721da0bab9d9bb9a92602c5b960405160405180910390a35050565b5f60095f8481526020019081526020015f2090508060080160019054906101000a900460ff1661108a576040517f08c379a000000000000000000000000000000000000000000000000000000000815260040161108190612f06565b60405180910390fd5b806008015f9054906101000a900460ff16156110db576040517f08c379a00000000000000000000000000000000000000000000000000000000081526004016110d2906135e7565b60405180910390fd5b5f5f9054906101000a900473ffffffffffffffffffffffffffffffffffffffff1673ffffffffffffffffffffffffffffffffffffffff166323b872dd3330856040518463ffffffff1660e01b815260040161113893929190613498565b6020604051808303815f875af1158015611154573d5f5f3e3d5ffd5b505050506040513d601f19601f8201168201806040525081019061117891906130c5565b6111b7576040517f08c379a00000000000000000000000000000000000000000000000000000000081526004016111ae9061364f565b60405180910390fd5b80600301544710156111fe576040517f08c379a00000000000000000000000000000000000000000000000000000000081526004016111f5906136b7565b60405180910390fd5b33816006015f6101000a81548173ffffffffffffffffffffffffffffffffffffffff021916908373ffffffffffffffffffffffffffffffffffffffff1602179055508181600701819055506001816008015f6101000a81548160ff021916908315150217905550805f015f9054906101000a900473ffffffffffffffffffffffffffffffffffffffff1673ffffffffffffffffffffffffffffffffffffffff166108fc826003015490811502906040515f60405180830381858888f193505050501580156112ce573d5f5f3e3d5ffd5b50827ffd39da9dabaf00e28b17867b31deb08293df967c9fe28d0b798643baf037691f336040516112ff9190612be5565b60405180910390a2505050565b6007602052805f5260405f205f91509050805f015f9054906101000a900473ffffffffffffffffffffffffffffffffffffffff1690806001015f9054906101000a900473ffffffffffffffffffffffffffffffffffffffff1690806002015490806003015490806004015490806005015f9054906101000a900473ffffffffffffffffffffffffffffffffffffffff16908060050160149054906101000a900460ff1690806006015490806007015f9054906101000a900460ff16905089565b5f5f9054906101000a900473ffffffffffffffffffffffffffffffffffffffff1681565b5f60095f8381526020019081526020015f209050806008015f9054906101000a900460ff16611454576040517f08c379a000000000000000000000000000000000000000000000000000000000815260040161144b906133aa565b60405180910390fd5b805f015f9054906101000a900473ffffffffffffffffffffffffffffffffffffffff1673ffffffffffffffffffffffffffffffffffffffff163373ffffffffffffffffffffffffffffffffffffffff16146114e4576040517f08c379a00000000000000000000000000000000000000000000000000000000081526004016114db9061371f565b60405180910390fd5b5f612710826004015483600301546114fc9190612f51565b6115069190612fbf565b90505f8183600301546115199190612fef565b90508034101561155e576040517f08c379a000000000000000000000000000000000000000000000000000000000815260040161155590613787565b60405180910390fd5b826001015f9054906101000a900473ffffffffffffffffffffffffffffffffffffffff1673ffffffffffffffffffffffffffffffffffffffff166323b872dd30855f015f9054906101000a900473ffffffffffffffffffffffffffffffffffffffff16876040518463ffffffff1660e01b81526004016115e093929190613498565b5f604051808303815f87803b1580156115f7575f5ffd5b505af1158015611609573d5f5f3e3d5ffd5b505050505f5f9054906101000a900473ffffffffffffffffffffffffffffffffffffffff1673ffffffffffffffffffffffffffffffffffffffff1663a9059cbb846006015f9054906101000a900473ffffffffffffffffffffffffffffffffffffffff1685600701546040518363ffffffff1660e01b815260040161168f92919061308a565b6020604051808303815f875af11580156116ab573d5f5f3e3d5ffd5b505050506040513d601f19601f820116820180604052508101906116cf91906130c5565b50826006015f9054906101000a900473ffffffffffffffffffffffffffffffffffffffff1673ffffffffffffffffffffffffffffffffffffffff166108fc8390811502906040515f60405180830381858888f19350505050158015611736573d5f5f3e3d5ffd5b505f8360080160016101000a81548160ff02191690831515021790555050505050565b60045481565b60025f9054906101000a900473ffffffffffffffffffffffffffffffffffffffff1681565b6009602052805f5260405f205f91509050805f015f9054906101000a900473ffffffffffffffffffffffffffffffffffffffff1690806001015f9054906101000a900473ffffffffffffffffffffffffffffffffffffffff1690806002015490806003015490806004015490806005015490806006015f9054906101000a900473ffffffffffffffffffffffffffffffffffffffff1690806007015490806008015f9054906101000a900460ff16908060080160019054906101000a900460ff1690508a565b60025f9054906101000a900473ffffffffffffffffffffffffffffffffffffffff1673ffffffffffffffffffffffffffffffffffffffff163373ffffffffffffffffffffffffffffffffffffffff16146118d9576040517f08c379a00000000000000000000000000000000000000000000000000000000081526004016118d0906131a2565b60405180910390fd5b8060058190555050565b60015f9054906101000a900473ffffffffffffffffffffffffffffffffffffffff1681565b5f821161194a576040517f08c379a0000000000000000000000000000000000000000000000000000000008152600401611941906137ef565b60405180910390fd5b5f8490503373ffffffffffffffffffffffffffffffffffffffff168173ffffffffffffffffffffffffffffffffffffffff16636352211e866040518263ffffffff1660e01b815260040161199e9190612982565b602060405180830381865afa1580156119b9573d5f5f3e3d5ffd5b505050506040513d601f19601f820116820180604052508101906119dd9190613821565b73ffffffffffffffffffffffffffffffffffffffff1614611a33576040517f08c379a0000000000000000000000000000000000000000000000000000000008152600401611a2a906131a2565b60405180910390fd5b8073ffffffffffffffffffffffffffffffffffffffff166323b872dd3330876040518463ffffffff1660e01b8152600401611a7093929190613498565b5f604051808303815f87803b158015611a87575f5ffd5b505af1158015611a99573d5f5f3e3d5ffd5b505050506040518060c001604052803373ffffffffffffffffffffffffffffffffffffffff1681526020018673ffffffffffffffffffffffffffffffffffffffff16815260200185815260200184815260200183151581526020016001151581525060065f8681526020019081526020015f205f820151815f015f6101000a81548173ffffffffffffffffffffffffffffffffffffffff021916908373ffffffffffffffffffffffffffffffffffffffff1602179055506020820151816001015f6101000a81548173ffffffffffffffffffffffffffffffffffffffff021916908373ffffffffffffffffffffffffffffffffffffffff16021790555060408201518160020155606082015181600301556080820151816004015f6101000a81548160ff02191690831515021790555060a08201518160040160016101000a81548160ff0219169083151502179055509050503373ffffffffffffffffffffffffffffffffffffffff16847f5f9c03de076f5063cd3ebcfe8ef7aa8af378e4b35a83c77ba9777e97083879a285604051611c339190612982565b60405180910390a35050505050565b5f8311611c84576040517f08c379a0000000000000000000000000000000000000000000000000000000008152600401611c7b90613896565b60405180910390fd5b5f8111611cc6576040517f08c379a0000000000000000000000000000000000000000000000000000000008152600401611cbd906138fe565b60405180910390fd5b5f8590503373ffffffffffffffffffffffffffffffffffffffff168173ffffffffffffffffffffffffffffffffffffffff16636352211e876040518263ffffffff1660e01b8152600401611d1a9190612982565b602060405180830381865afa158015611d35573d5f5f3e3d5ffd5b505050506040513d601f19601f82011682018060405250810190611d599190613821565b73ffffffffffffffffffffffffffffffffffffffff1614611daf576040517f08c379a0000000000000000000000000000000000000000000000000000000008152600401611da6906131a2565b60405180910390fd5b8073ffffffffffffffffffffffffffffffffffffffff166323b872dd3330886040518463ffffffff1660e01b8152600401611dec93929190613498565b5f604051808303815f87803b158015611e03575f5ffd5b505af1158015611e15573d5f5f3e3d5ffd5b505050506040518061014001604052803373ffffffffffffffffffffffffffffffffffffffff1681526020018773ffffffffffffffffffffffffffffffffffffffff1681526020018681526020018581526020018481526020018381526020015f73ffffffffffffffffffffffffffffffffffffffff1681526020015f81526020015f151581526020016001151581525060095f8781526020019081526020015f205f820151815f015f6101000a81548173ffffffffffffffffffffffffffffffffffffffff021916908373ffffffffffffffffffffffffffffffffffffffff1602179055506020820151816001015f6101000a81548173ffffffffffffffffffffffffffffffffffffffff021916908373ffffffffffffffffffffffffffffffffffffffff16021790555060408201518160020155606082015181600301556080820151816004015560a0820151816005015560c0820151816006015f6101000a81548173ffffffffffffffffffffffffffffffffffffffff021916908373ffffffffffffffffffffffffffffffffffffffff16021790555060e08201518160070155610100820151816008015f6101000a81548160ff0219169083151502179055506101208201518160080160016101000a81548160ff021916908315150217905550905050847f181ae03d67e4488ceffc1f3c66aec96ee2880dfe72f056bf1ef7c42ddfa390218560405161202d9190612982565b60405180910390a2505050505050565b5f831161207f576040517f08c379a0000000000000000000000000000000000000000000000000000000008152600401612076906137ef565b60405180910390fd5b5f81116120c1576040517f08c379a00000000000000000000000000000000000000000000000000000000081526004016120b8906138fe565b60405180910390fd5b5f8590503373ffffffffffffffffffffffffffffffffffffffff168173ffffffffffffffffffffffffffffffffffffffff16636352211e876040518263ffffffff1660e01b81526004016121159190612982565b602060405180830381865afa158015612130573d5f5f3e3d5ffd5b505050506040513d601f19601f820116820180604052508101906121549190613821565b73ffffffffffffffffffffffffffffffffffffffff16146121aa576040517f08c379a00000000000000000000000000000000000000000000000000000000081526004016121a1906131a2565b60405180910390fd5b8073ffffffffffffffffffffffffffffffffffffffff166323b872dd3330886040518463ffffffff1660e01b81526004016121e793929190613498565b5f604051808303815f87803b1580156121fe575f5ffd5b505af1158015612210573d5f5f3e3d5ffd5b505050506040518061012001604052803373ffffffffffffffffffffffffffffffffffffffff1681526020018773ffffffffffffffffffffffffffffffffffffffff1681526020018681526020018581526020015f81526020015f73ffffffffffffffffffffffffffffffffffffffff1681526020018415158152602001834261229a9190612fef565b81526020016001151581525060075f8781526020019081526020015f205f820151815f015f6101000a81548173ffffffffffffffffffffffffffffffffffffffff021916908373ffffffffffffffffffffffffffffffffffffffff1602179055506020820151816001015f6101000a81548173ffffffffffffffffffffffffffffffffffffffff021916908373ffffffffffffffffffffffffffffffffffffffff16021790555060408201518160020155606082015181600301556080820151816004015560a0820151816005015f6101000a81548173ffffffffffffffffffffffffffffffffffffffff021916908373ffffffffffffffffffffffffffffffffffffffff16021790555060c08201518160050160146101000a81548160ff02191690831515021790555060e08201518160060155610100820151816007015f6101000a81548160ff021916908315150217905550905050847f1bb96dff6ab5005aff98cdc0cf176bb7d8e0423cb48e02217d35b042cec81e9f60405160405180910390a2505050505050565b60055481565b6006602052805f5260405f205f91509050805f015f9054906101000a900473ffffffffffffffffffffffffffffffffffffffff1690806001015f9054906101000a900473ffffffffffffffffffffffffffffffffffffffff1690806002015490806003015490806004015f9054906101000a900460ff16908060040160019054906101000a900460ff16905086565b60025f9054906101000a900473ffffffffffffffffffffffffffffffffffffffff1673ffffffffffffffffffffffffffffffffffffffff163373ffffffffffffffffffffffffffffffffffffffff161461254b576040517f08c379a0000000000000000000000000000000000000000000000000000000008152600401612542906131a2565b60405180910390fd5b8060048190555050565b5f8111612597576040517f08c379a000000000000000000000000000000000000000000000000000000000815260040161258e90613966565b60405180910390fd5b60085f3373ffffffffffffffffffffffffffffffffffffffff1673ffffffffffffffffffffffffffffffffffffffff1681526020019081526020015f206005015f9054906101000a900460ff1615612624576040517f08c379a000000000000000000000000000000000000000000000000000000000815260040161261b906139ce565b60405180910390fd5b5f5f9054906101000a900473ffffffffffffffffffffffffffffffffffffffff1673ffffffffffffffffffffffffffffffffffffffff166323b872dd3330846040518463ffffffff1660e01b815260040161268193929190613498565b6020604051808303815f875af115801561269d573d5f5f3e3d5ffd5b505050506040513d601f19601f820116820180604052508101906126c191906130c5565b612700576040517f08c379a00000000000000000000000000000000000000000000000000000000081526004016126f790613a36565b60405180910390fd5b5f68056bc75e2d63100000826127169190612fbf565b90508047101561275b576040517f08c379a000000000000000000000000000000000000000000000000000000000815260040161275290613a9e565b60405180910390fd5b6040518060c001604052803373ffffffffffffffffffffffffffffffffffffffff168152602001838152602001828152602001428152602001600554426127a29190612fef565b81526020016001151581525060085f3373ffffffffffffffffffffffffffffffffffffffff1673ffffffffffffffffffffffffffffffffffffffff1681526020019081526020015f205f820151815f015f6101000a81548173ffffffffffffffffffffffffffffffffffffffff021916908373ffffffffffffffffffffffffffffffffffffffff1602179055506020820151816001015560408201518160020155606082015181600301556080820151816004015560a0820151816005015f6101000a81548160ff0219169083151502179055509050503373ffffffffffffffffffffffffffffffffffffffff166108fc8290811502906040515f60405180830381858888f193505050501580156128bc573d5f5f3e3d5ffd5b503373ffffffffffffffffffffffffffffffffffffffff167f63d0864ecddf0b3a8e5ad9ccc36d1a0d5df6b922b181437ff748cf84dfb9ea7a8383604051612905929190613abc565b60405180910390a25050565b5f5ffd5b5f819050919050565b61292781612915565b8114612931575f5ffd5b50565b5f813590506129428161291e565b92915050565b5f6020828403121561295d5761295c612911565b5b5f61296a84828501612934565b91505092915050565b61297c81612915565b82525050565b5f6020820190506129955f830184612973565b92915050565b5f73ffffffffffffffffffffffffffffffffffffffff82169050919050565b5f6129c48261299b565b9050919050565b6129d4816129ba565b81146129de575f5ffd5b50565b5f813590506129ef816129cb565b92915050565b5f60208284031215612a0a57612a09612911565b5b5f612a17848285016129e1565b91505092915050565b612a29816129ba565b82525050565b5f8115159050919050565b612a4381612a2f565b82525050565b5f60c082019050612a5c5f830189612a20565b612a696020830188612973565b612a766040830187612973565b612a836060830186612973565b612a906080830185612973565b612a9d60a0830184612a3a565b979650505050505050565b5f5f60408385031215612abe57612abd612911565b5b5f612acb85828601612934565b9250506020612adc85828601612934565b9150509250929050565b5f61012082019050612afa5f83018c612a20565b612b07602083018b612a20565b612b14604083018a612973565b612b216060830189612973565b612b2e6080830188612973565b612b3b60a0830187612a20565b612b4860c0830186612a3a565b612b5560e0830185612973565b612b63610100830184612a3a565b9a9950505050505050505050565b5f819050919050565b5f612b94612b8f612b8a8461299b565b612b71565b61299b565b9050919050565b5f612ba582612b7a565b9050919050565b5f612bb682612b9b565b9050919050565b612bc681612bac565b82525050565b5f602082019050612bdf5f830184612bbd565b92915050565b5f602082019050612bf85f830184612a20565b92915050565b5f61014082019050612c125f83018d612a20565b612c1f602083018c612a20565b612c2c604083018b612973565b612c39606083018a612973565b612c466080830189612973565b612c5360a0830188612973565b612c6060c0830187612a20565b612c6d60e0830186612973565b612c7b610100830185612a3a565b612c89610120830184612a3a565b9b9a5050505050505050505050565b5f612ca282612b9b565b9050919050565b612cb281612c98565b82525050565b5f602082019050612ccb5f830184612ca9565b92915050565b612cda81612a2f565b8114612ce4575f5ffd5b50565b5f81359050612cf581612cd1565b92915050565b5f5f5f5f60808587031215612d1357612d12612911565b5b5f612d20878288016129e1565b9450506020612d3187828801612934565b9350506040612d4287828801612934565b9250506060612d5387828801612ce7565b91505092959194509250565b5f5f5f5f5f60a08688031215612d7857612d77612911565b5b5f612d85888289016129e1565b9550506020612d9688828901612934565b9450506040612da788828901612934565b9350506060612db888828901612934565b9250506080612dc988828901612934565b9150509295509295909350565b5f5f5f5f5f60a08688031215612def57612dee612911565b5b5f612dfc888289016129e1565b9550506020612e0d88828901612934565b9450506040612e1e88828901612934565b9350506060612e2f88828901612ce7565b9250506080612e4088828901612934565b9150509295509295909350565b5f60c082019050612e605f830189612a20565b612e6d6020830188612a20565b612e7a6040830187612973565b612e876060830186612973565b612e946080830185612a3a565b612ea160a0830184612a3a565b979650505050505050565b5f82825260208201905092915050565b7f4e6f206c6f616e000000000000000000000000000000000000000000000000005f82015250565b5f612ef0600783612eac565b9150612efb82612ebc565b602082019050919050565b5f6020820190508181035f830152612f1d81612ee4565b9050919050565b7f4e487b71000000000000000000000000000000000000000000000000000000005f52601160045260245ffd5b5f612f5b82612915565b9150612f6683612915565b9250828202612f7481612915565b91508282048414831517612f8b57612f8a612f24565b5b5092915050565b7f4e487b71000000000000000000000000000000000000000000000000000000005f52601260045260245ffd5b5f612fc982612915565b9150612fd483612915565b925082612fe457612fe3612f92565b5b828204905092915050565b5f612ff982612915565b915061300483612915565b925082820190508082111561301c5761301b612f24565b5b92915050565b7f4e656564206d6f726520455448000000000000000000000000000000000000005f82015250565b5f613056600d83612eac565b915061306182613022565b602082019050919050565b5f6020820190508181035f8301526130838161304a565b9050919050565b5f60408201905061309d5f830185612a20565b6130aa6020830184612973565b9392505050565b5f815190506130bf81612cd1565b92915050565b5f602082840312156130da576130d9612911565b5b5f6130e7848285016130b1565b91505092915050565b7f4445582072657475726e206661696c65640000000000000000000000000000005f82015250565b5f613124601183612eac565b915061312f826130f0565b602082019050919050565b5f6020820190508181035f83015261315181613118565b9050919050565b7f4e6f74206f776e657200000000000000000000000000000000000000000000005f82015250565b5f61318c600983612eac565b915061319782613158565b602082019050919050565b5f6020820190508181035f8301526131b981613180565b9050919050565b7f4e6f2061756374696f6e000000000000000000000000000000000000000000005f82015250565b5f6131f4600a83612eac565b91506131ff826131c0565b602082019050919050565b5f6020820190508181035f830152613221816131e8565b9050919050565b7f456e6465640000000000000000000000000000000000000000000000000000005f82015250565b5f61325c600583612eac565b915061326782613228565b602082019050919050565b5f6020820190508181035f83015261328981613250565b9050919050565b7f42696420746f6f206c6f770000000000000000000000000000000000000000005f82015250565b5f6132c4600b83612eac565b91506132cf82613290565b602082019050919050565b5f6020820190508181035f8301526132f1816132b8565b9050919050565b7f42656c6f77206d696e696d756d000000000000000000000000000000000000005f82015250565b5f61332c600d83612eac565b9150613337826132f8565b602082019050919050565b5f6020820190508181035f83015261335981613320565b9050919050565b7f4e6f2066756e64696e67000000000000000000000000000000000000000000005f82015250565b5f613394600a83612eac565b915061339f82613360565b602082019050919050565b5f6020820190508181035f8301526133c181613388565b9050919050565b7f4e6f74206c656e646572000000000000000000000000000000000000000000005f82015250565b5f6133fc600a83612eac565b9150613407826133c8565b602082019050919050565b5f6020820190508181035f830152613429816133f0565b9050919050565b7f546f6f206561726c7900000000000000000000000000000000000000000000005f82015250565b5f613464600983612eac565b915061346f82613430565b602082019050919050565b5f6020820190508181035f83015261349181613458565b9050919050565b5f6060820190506134ab5f830186612a20565b6134b86020830185612a20565b6134c56040830184612973565b949350505050565b7f4e6f74206c6973746564000000000000000000000000000000000000000000005f82015250565b5f613501600a83612eac565b915061350c826134cd565b602082019050919050565b5f6020820190508181035f83015261352e816134f5565b9050919050565b7f444558207061796d656e74206661696c656400000000000000000000000000005f82015250565b5f613569601283612eac565b915061357482613535565b602082019050919050565b5f6020820190508181035f8301526135968161355d565b9050919050565b7f46756e64656400000000000000000000000000000000000000000000000000005f82015250565b5f6135d1600683612eac565b91506135dc8261359d565b602082019050919050565b5f6020820190508181035f8301526135fe816135c5565b9050919050565b7f444558206661696c6564000000000000000000000000000000000000000000005f82015250565b5f613639600a83612eac565b915061364482613605565b602082019050919050565b5f6020820190508181035f8301526136668161362d565b9050919050565b7f4e6f2045544800000000000000000000000000000000000000000000000000005f82015250565b5f6136a1600683612eac565b91506136ac8261366d565b602082019050919050565b5f6020820190508181035f8301526136ce81613695565b9050919050565b7f4e6f7420626f72726f77657200000000000000000000000000000000000000005f82015250565b5f613709600c83612eac565b9150613714826136d5565b602082019050919050565b5f6020820190508181035f830152613736816136fd565b9050919050565b7f4e656564204554480000000000000000000000000000000000000000000000005f82015250565b5f613771600883612eac565b915061377c8261373d565b602082019050919050565b5f6020820190508181035f83015261379e81613765565b9050919050565b7f496e76616c6964207072696365000000000000000000000000000000000000005f82015250565b5f6137d9600d83612eac565b91506137e4826137a5565b602082019050919050565b5f6020820190508181035f830152613806816137cd565b9050919050565b5f8151905061381b816129cb565b92915050565b5f6020828403121561383657613835612911565b5b5f6138438482850161380d565b91505092915050565b7f496e76616c6964204554480000000000000000000000000000000000000000005f82015250565b5f613880600b83612eac565b915061388b8261384c565b602082019050919050565b5f6020820190508181035f8301526138ad81613874565b9050919050565b7f496e76616c6964206475726174696f6e000000000000000000000000000000005f82015250565b5f6138e8601083612eac565b91506138f3826138b4565b602082019050919050565b5f6020820190508181035f830152613915816138dc565b9050919050565b7f496e76616c696420636f6c6c61746572616c00000000000000000000000000005f82015250565b5f613950601283612eac565b915061395b8261391c565b602082019050919050565b5f6020820190508181035f83015261397d81613944565b9050919050565b7f4c6f616e206578697374730000000000000000000000000000000000000000005f82015250565b5f6139b8600b83612eac565b91506139c382613984565b602082019050919050565b5f6020820190508181035f8301526139e5816139ac565b9050919050565b7f444558207472616e73666572206661696c6564000000000000000000000000005f82015250565b5f613a20601383612eac565b9150613a2b826139ec565b602082019050919050565b5f6020820190508181035f830152613a4d81613a14565b9050919050565b7f4e6f206c697175696469747900000000000000000000000000000000000000005f82015250565b5f613a88600c83612eac565b9150613a9382613a54565b602082019050919050565b5f6020820190508181035f830152613ab581613a7c565b9050919050565b5f604082019050613acf5f830185612973565b613adc6020830184612973565b939250505056fea26469706673582212206d8129c0bd11524d9983c6d9b9326bb06ab9350c93d9c2d82d42db65c37a5dbf64736f6c634300081c0033",
  "linkReferences": {},
  "deployedLinkReferences": {},
  "immutableReferences": {},
  "inputSourceName": "project/contracts/DEXNFTMarket.sol",
  "buildInfoId": "solc-0_8_28-9b5f24424f85c998bb019f5a2a3e009709985a2d"
}