{
  "_format": "hh3-artifact-1",
  "contractName": "DEXNFTMarket",
  "sourceName": "contracts/DEXNFTMarket.sol",
  "abi": [
    {
      "inputs": [
        {
          "internalType": "address",
          "name": "dexAddress",
          "type": "address"
        },
        {
          "internalType": "address",
          "name": "nftAddress",
          "type": "address"
        }
      ],
      "stateMutability": "nonpayable",
      "type": "constructor"
    },
    {
      "inputs": [],
      "name": "ReentrancyGuardReentrantCall",
      "type": "error"
    },
    {
      "anonymous": false,
      "inputs": [
        {
          "indexed": true,
          "internalType": "uint256",
          "name": "tokenId",
          "type": "uint256"
        },
        {
          "indexed": false,
          "internalType": "address",
          "name": "winner",
          "type": "address"
        }
      ],
      "name": "AuctionEnded",
      "type": "event"
    },
    {
      "anonymous": false,
      "inputs": [
        {
          "indexed": true,
          "internalType": "uint256",
          "name": "tokenId",
          "type": "uint256"
        }
      ],
      "name": "AuctionStarted",
      "type": "event"
    },
    {
      "anonymous": false,
      "inputs": [
        {
          "indexed": true,
          "internalType": "uint256",
          "name": "tokenId",
          "type": "uint256"
        },
        {
          "indexed": true,
          "internalType": "address",
          "name": "bidder",
          "type": "address"
        },
        {
          "indexed": false,
          "internalType": "uint256",
          "name": "amount",
          "type": "uint256"
        }
      ],
      "name": "BidPlaced",
      "type": "event"
    },
    {
      "anonymous": false,
      "inputs": [
        {
          "indexed": true,
          "internalType": "address",
          "name": "borrower",
          "type": "address"
        }
      ],
      "name": "DexLoanClosed",
      "type": "event"
    },
    {
      "anonymous": false,
      "inputs": [
        {
          "indexed": true,
          "internalType": "address",
          "name": "borrower",
          "type": "address"
        },
        {
          "indexed": false,
          "internalType": "uint256",
          "name": "collateral",
          "type": "uint256"
        },
        {
          "indexed": false,
          "internalType": "uint256",
          "name": "borrowedETH",
          "type": "uint256"
        }
      ],
      "name": "DexLoanOpened",
      "type": "event"
    },
    {
      "anonymous": false,
      "inputs": [
        {
          "indexed": true,
          "internalType": "address",
          "name": "user",
          "type": "address"
        },
        {
          "indexed": false,
          "internalType": "uint256",
          "name": "amount",
          "type": "uint256"
        }
      ],
      "name": "ETHWithdrawn",
      "type": "event"
    },
    {
      "anonymous": false,
      "inputs": [
        {
          "indexed": true,
          "internalType": "uint256",
          "name": "tokenId",
          "type": "uint256"
        },
        {
          "indexed": true,
          "internalType": "address",
          "name": "seller",
          "type": "address"
        },
        {
          "indexed": false,
          "internalType": "uint256",
          "name": "price",
          "type": "uint256"
        }
      ],
      "name": "NFTListed",
      "type": "event"
    },
    {
      "anonymous": false,
      "inputs": [
        {
          "indexed": true,
          "internalType": "uint256",
          "name": "tokenId",
          "type": "uint256"
        },
        {
          "indexed": false,
          "internalType": "address",
          "name": "lender",
          "type": "address"
        }
      ],
      "name": "NFTLoanFunded",
      "type": "event"
    },
    {
      "anonymous": false,
      "inputs": [
        {
          "indexed": true,
          "internalType": "uint256",
          "name": "tokenId",
          "type": "uint256"
        },
        {
          "indexed": false,
          "internalType": "uint256",
          "name": "requestedETH",
          "type": "uint256"
        }
      ],
      "name": "NFTLoanRequested",
      "type": "event"
    },
    {
      "anonymous": false,
      "inputs": [
        {
          "indexed": true,
          "internalType": "uint256",
          "name": "tokenId",
          "type": "uint256"
        },
        {
          "indexed": true,
          "internalType": "address",
          "name": "buyer",
          "type": "address"
        }
      ],
      "name": "NFTSold",
      "type": "event"
    },
    {
      "anonymous": false,
      "inputs": [
        {
          "indexed": true,
          "internalType": "address",
          "name": "user",
          "type": "address"
        },
        {
          "indexed": false,
          "internalType": "uint256",
          "name": "amount",
          "type": "uint256"
        }
      ],
      "name": "PendingWithdrawalAdded",
      "type": "event"
    },
    {
      "stateMutability": "payable",
      "type": "fallback"
    },
    {
      "inputs": [
        {
          "internalType": "uint256",
          "name": "",
          "type": "uint256"
        }
      ],
      "name": "auctions",
      "outputs": [
        {
          "internalType": "address",
          "name": "seller",
          "type": "address"
        },
        {
          "internalType": "address",
          "name": "nftContract",
          "type": "address"
        },
        {
          "internalType": "uint256",
          "name": "tokenId",
          "type": "uint256"
        },
        {
          "internalType": "uint256",
          "name": "minPrice",
          "type": "uint256"
        },
        {
          "internalType": "uint256",
          "name": "highestBid",
          "type": "uint256"
        },
        {
          "internalType": "address",
          "name": "highestBidder",
          "type": "address"
        },
        {
          "internalType": "bool",
          "name": "inDEX",
          "type": "bool"
        },
        {
          "internalType": "uint256",
          "name": "endTime",
          "type": "uint256"
        },
        {
          "internalType": "bool",
          "name": "active",
          "type": "bool"
        }
      ],
      "stateMutability": "view",
      "type": "function"
    },
    {
      "inputs": [
        {
          "internalType": "uint256",
          "name": "tokenId",
          "type": "uint256"
        }
      ],
      "name": "bid",
      "outputs": [],
      "stateMutability": "payable",
      "type": "function"
    },
    {
      "inputs": [
        {
          "internalType": "uint256",
          "name": "collateralDEX",
          "type": "uint256"
        }
      ],
      "name": "borrowETHWithDEX",
      "outputs": [],
      "stateMutability": "nonpayable",
      "type": "function"
    },
    {
      "inputs": [
        {
          "internalType": "uint256",
          "name": "tokenId",
          "type": "uint256"
        }
      ],
      "name": "buyNFT",
      "outputs": [],
      "stateMutability": "payable",
      "type": "function"
    },
    {
      "inputs": [
        {
          "internalType": "uint256",
          "name": "tokenId",
          "type": "uint256"
        }
      ],
      "name": "claimNFTDefault",
      "outputs": [],
      "stateMutability": "nonpayable",
      "type": "function"
    },
    {
      "inputs": [],
      "name": "dex",
      "outputs": [
        {
          "internalType": "contract IDEXToken",
          "name": "",
          "type": "address"
        }
      ],
      "stateMutability": "view",
      "type": "function"
    },
    {
      "inputs": [],
      "name": "dexLoanInterestBps",
      "outputs": [
        {
          "internalType": "uint256",
          "name": "",
          "type": "uint256"
        }
      ],
      "stateMutability": "view",
      "type": "function"
    },
    {
      "inputs": [
        {
          "internalType": "address",
          "name": "",
          "type": "address"
        }
      ],
      "name": "dexLoans",
      "outputs": [
        {
          "internalType": "address",
          "name": "borrower",
          "type": "address"
        },
        {
          "internalType": "uint256",
          "name": "collateralDEX",
          "type": "uint256"
        },
        {
          "internalType": "uint256",
          "name": "borrowedETH",
          "type": "uint256"
        },
        {
          "internalType": "uint256",
          "name": "startTime",
          "type": "uint256"
        },
        {
          "internalType": "uint256",
          "name": "nextPaymentDue",
          "type": "uint256"
        },
        {
          "internalType": "bool",
          "name": "active",
          "type": "bool"
        }
      ],
      "stateMutability": "view",
      "type": "function"
    },
    {
      "inputs": [],
      "name": "earlyCloseFeeBps",
      "outputs": [
        {
          "internalType": "uint256",
          "name": "",
          "type": "uint256"
        }
      ],
      "stateMutability": "view",
      "type": "function"
    },
    {
      "inputs": [
        {
          "internalType": "uint256",
          "name": "tokenId",
          "type": "uint256"
        }
      ],
      "name": "endAuction",
      "outputs": [],
      "stateMutability": "nonpayable",
      "type": "function"
    },
    {
      "inputs": [
        {
          "internalType": "uint256",
          "name": "tokenId",
          "type": "uint256"
        },
        {
          "internalType": "uint256",
          "name": "dexBacking",
          "type": "uint256"
        }
      ],
      "name": "fundNFTLoan",
      "outputs": [],
      "stateMutability": "nonpayable",
      "type": "function"
    },
    {
      "inputs": [
        {
          "internalType": "address",
          "name": "nftContract",
          "type": "address"
        },
        {
          "internalType": "uint256",
          "name": "tokenId",
          "type": "uint256"
        },
        {
          "internalType": "uint256",
          "name": "price",
          "type": "uint256"
        },
        {
          "internalType": "bool",
          "name": "inDEX",
          "type": "bool"
        }
      ],
      "name": "listNFT",
      "outputs": [],
      "stateMutability": "nonpayable",
      "type": "function"
    },
    {
      "inputs": [
        {
          "internalType": "uint256",
          "name": "",
          "type": "uint256"
        }
      ],
      "name": "listings",
      "outputs": [
        {
          "internalType": "address",
          "name": "seller",
          "type": "address"
        },
        {
          "internalType": "address",
          "name": "nftContract",
          "type": "address"
        },
        {
          "internalType": "uint256",
          "name": "tokenId",
          "type": "uint256"
        },
        {
          "internalType": "uint256",
          "name": "price",
          "type": "uint256"
        },
        {
          "internalType": "bool",
          "name": "inDEX",
          "type": "bool"
        },
        {
          "internalType": "bool",
          "name": "active",
          "type": "bool"
        }
      ],
      "stateMutability": "view",
      "type": "function"
    },
    {
      "inputs": [
        {
          "internalType": "uint256",
          "name": "",
          "type": "uint256"
        }
      ],
      "name": "nftLoans",
      "outputs": [
        {
          "internalType": "address",
          "name": "borrower",
          "type": "address"
        },
        {
          "internalType": "address",
          "name": "nftContract",
          "type": "address"
        },
        {
          "internalType": "uint256",
          "name": "tokenId",
          "type": "uint256"
        },
        {
          "internalType": "uint256",
          "name": "requestedETH",
          "type": "uint256"
        },
        {
          "internalType": "uint256",
          "name": "interestRateBps",
          "type": "uint256"
        },
        {
          "internalType": "uint256",
          "name": "duration",
          "type": "uint256"
        },
        {
          "internalType": "uint256",
          "name": "fundedAt",
          "type": "uint256"
        },
        {
          "internalType": "uint256",
          "name": "deadline",
          "type": "uint256"
        },
        {
          "internalType": "address",
          "name": "lender",
          "type": "address"
        },
        {
          "internalType": "uint256",
          "name": "lenderDEXLocked",
          "type": "uint256"
        },
        {
          "internalType": "bool",
          "name": "funded",
          "type": "bool"
        },
        {
          "internalType": "bool",
          "name": "active",
          "type": "bool"
        }
      ],
      "stateMutability": "view",
      "type": "function"
    },
    {
      "inputs": [],
      "name": "nftSaleFeeBps",
      "outputs": [
        {
          "internalType": "uint256",
          "name": "",
          "type": "uint256"
        }
      ],
      "stateMutability": "view",
      "type": "function"
    },
    {
      "inputs": [],
      "name": "owner",
      "outputs": [
        {
          "internalType": "address",
          "name": "",
          "type": "address"
        }
      ],
      "stateMutability": "view",
      "type": "function"
    },
    {
      "inputs": [],
      "name": "pawNFT",
      "outputs": [
        {
          "internalType": "contract IPawNFT",
          "name": "",
          "type": "address"
        }
      ],
      "stateMutability": "view",
      "type": "function"
    },
    {
      "inputs": [],
      "name": "paymentCycle",
      "outputs": [
        {
          "internalType": "uint256",
          "name": "",
          "type": "uint256"
        }
      ],
      "stateMutability": "view",
      "type": "function"
    },
    {
      "inputs": [
        {
          "internalType": "address",
          "name": "",
          "type": "address"
        }
      ],
      "name": "pendingETHWithdrawals",
      "outputs": [
        {
          "internalType": "uint256",
          "name": "",
          "type": "uint256"
        }
      ],
      "stateMutability": "view",
      "type": "function"
    },
    {
      "inputs": [],
      "name": "repayDEXLoan",
      "outputs": [],
      "stateMutability": "payable",
      "type": "function"
    },
    {
      "inputs": [
        {
          "internalType": "uint256",
          "name": "tokenId",
          "type": "uint256"
        }
      ],
      "name": "repayNFTLoan",
      "outputs": [],
      "stateMutability": "payable",
      "type": "function"
    },
    {
      "inputs": [
        {
          "internalType": "address",
          "name": "nftContract",
          "type": "address"
        },
        {
          "internalType": "uint256",
          "name": "tokenId",
          "type": "uint256"
        },
        {
          "internalType": "uint256",
          "name": "requestedETH",
          "type": "uint256"
        },
        {
          "internalType": "uint256",
          "name": "interestRateBps",
          "type": "uint256"
        },
        {
          "internalType": "uint256",
          "name": "duration",
          "type": "uint256"
        }
      ],
      "name": "requestNFTLoan",
      "outputs": [],
      "stateMutability": "nonpayable",
      "type": "function"
    },
    {
      "inputs": [
        {
          "internalType": "uint256",
          "name": "newFee",
          "type": "uint256"
        }
      ],
      "name": "setEarlyFee",
      "outputs": [],
      "stateMutability": "nonpayable",
      "type": "function"
    },
    {
      "inputs": [
        {
          "internalType": "uint256",
          "name": "newRate",
          "type": "uint256"
        }
      ],
      "name": "setInterest",
      "outputs": [],
      "stateMutability": "nonpayable",
      "type": "function"
    },
    {
      "inputs": [
        {
          "internalType": "uint256",
          "name": "newFee",
          "type": "uint256"
        }
      ],
      "name": "setNFTSaleFee",
      "outputs": [],
      "stateMutability": "nonpayable",
      "type": "function"
    },
    {
      "inputs": [
        {
          "internalType": "uint256",
          "name": "newCycle",
          "type": "uint256"
        }
      ],
      "name": "setPaymentCycle",
      "outputs": [],
      "stateMutability": "nonpayable",
      "type": "function"
    },
    {
      "inputs": [
        {
          "internalType": "address",
          "name": "nftContract",
          "type": "address"
        },
        {
          "internalType": "uint256",
          "name": "tokenId",
          "type": "uint256"
        },
        {
          "internalType": "uint256",
          "name": "minPrice",
          "type": "uint256"
        },
        {
          "internalType": "bool",
          "name": "inDEX",
          "type": "bool"
        },
        {
          "internalType": "uint256",
          "name": "duration",
          "type": "uint256"
        }
      ],
      "name": "startAuction",
      "outputs": [],
      "stateMutability": "nonpayable",
      "type": "function"
    },
    {
      "inputs": [],
      "name": "withdrawETH",
      "outputs": [],
      "stateMutability": "nonpayable",
      "type": "function"
    },
    {
      "stateMutability": "payable",
      "type": "receive"
    }
  ],
  "bytecode": "0x608060405234801561000f575f5ffd5b50604051615471380380615471833981810160405281019061003191906101d0565b600161004f61004461014060201b60201c565b61016960201b60201c565b5f01819055503360025f6101000a81548173ffffffffffffffffffffffffffffffffffffffff021916908373ffffffffffffffffffffffffffffffffffffffff160217905550815f5f6101000a81548173ffffffffffffffffffffffffffffffffffffffff021916908373ffffffffffffffffffffffffffffffffffffffff1602179055508060015f6101000a81548173ffffffffffffffffffffffffffffffffffffffff021916908373ffffffffffffffffffffffffffffffffffffffff1602179055506101f460038190555061012c60048190555062278d006005819055506101f4600681905550505061020e565b5f7f9b779b17422d0df92223018b32b4d1fa46e071723d6817e2486d003becc55f005f1b905090565b5f819050919050565b5f5ffd5b5f73ffffffffffffffffffffffffffffffffffffffff82169050919050565b5f61019f82610176565b9050919050565b6101af81610195565b81146101b9575f5ffd5b50565b5f815190506101ca816101a6565b92915050565b5f5f604083850312156101e6576101e5610172565b5b5f6101f3858286016101bc565b9250506020610204858286016101bc565b9150509250929050565b6152568061021b5f395ff3fe6080604052600436106101ba575f3560e01c80639aa5748f116100eb578063b9a2de3a11610089578063de74e57b11610063578063de74e57b146105b1578063e086e5ec146105f2578063e4049b0314610608578063f4263c8f14610630576101bb565b8063b9a2de3a14610535578063cc2e031c1461055d578063de084e7f14610587576101bb565b8063b0b66e79116100c5578063b0b66e7914610495578063b3f515d5146104bd578063b5c73b93146104e5578063b5fa66131461050d576101bb565b80639aa5748f146103fc578063ad6627ef14610443578063af032e771461046b576101bb565b806351ed828811610158578063692058c211610132578063692058c214610362578063722d99641461038c5780637f7bf343146103a85780638da5cb5b146103d2576101bb565b806351ed8288146102da57806352716e51146102f6578063571a26a01461031e576101bb565b80633f51e0c9116101945780633f51e0c914610219578063454a2ab31461025a5780634dcbadcf146102765780634e9beead1461029e576101bb565b80631c45cc20146101bd5780631d086720146101c75780632239800b146101ef576101bb565b5b005b6101c5610658565b005b3480156101d2575f5ffd5b506101ed60048036038101906101e89190613d83565b61096b565b005b3480156101fa575f5ffd5b50610203610a04565b6040516102109190613dbd565b60405180910390f35b348015610224575f5ffd5b5061023f600480360381019061023a9190613e30565b610a0a565b60405161025196959493929190613e84565b60405180910390f35b610274600480360381019061026f9190613d83565b610a6d565b005b348015610281575f5ffd5b5061029c60048036038101906102979190613d83565b610dea565b005b3480156102a9575f5ffd5b506102c460048036038101906102bf9190613e30565b61119b565b6040516102d19190613dbd565b60405180910390f35b6102f460048036038101906102ef9190613d83565b6111b0565b005b348015610301575f5ffd5b5061031c60048036038101906103179190613ee3565b611843565b005b348015610329575f5ffd5b50610344600480360381019061033f9190613d83565b611bde565b60405161035999989796959493929190613f21565b60405180910390f35b34801561036d575f5ffd5b50610376611c9e565b6040516103839190614007565b60405180910390f35b6103a660048036038101906103a19190613d83565b611cc2565b005b3480156103b3575f5ffd5b506103bc61221e565b6040516103c99190613dbd565b60405180910390f35b3480156103dd575f5ffd5b506103e6612224565b6040516103f39190614020565b60405180910390f35b348015610407575f5ffd5b50610422600480360381019061041d9190613d83565b612249565b60405161043a9c9b9a99989796959493929190614039565b60405180910390f35b34801561044e575f5ffd5b5061046960048036038101906104649190613d83565b61231b565b005b348015610476575f5ffd5b5061047f6123b4565b60405161048c9190614111565b60405180910390f35b3480156104a0575f5ffd5b506104bb60048036038101906104b69190614154565b6123d9565b005b3480156104c8575f5ffd5b506104e360048036038101906104de91906141b8565b612723565b005b3480156104f0575f5ffd5b5061050b6004803603810190610506919061422f565b612b50565b005b348015610518575f5ffd5b50610533600480360381019061052e9190613d83565b612f8b565b005b348015610540575f5ffd5b5061055b60048036038101906105569190613d83565b613024565b005b348015610568575f5ffd5b50610571613555565b60405161057e9190613dbd565b60405180910390f35b348015610592575f5ffd5b5061059b61355b565b6040516105a89190613dbd565b60405180910390f35b3480156105bc575f5ffd5b506105d760048036038101906105d29190613d83565b613561565b6040516105e9969594939291906142a6565b60405180910390f35b3480156105fd575f5ffd5b506106066135f0565b005b348015610613575f5ffd5b5061062e60048036038101906106299190613d83565b6137bf565b005b34801561063b575f5ffd5b5061065660048036038101906106519190613d83565b613858565b005b610660613c81565b5f60095f3373ffffffffffffffffffffffffffffffffffffffff1673ffffffffffffffffffffffffffffffffffffffff1681526020019081526020015f209050806005015f9054906101000a900460ff166106f0576040517f08c379a00000000000000000000000000000000000000000000000000000000081526004016106e79061435f565b60405180910390fd5b5f612710600354836002015461070691906143aa565b6107109190614418565b90505f8183600201546107239190614448565b905080341015610768576040517f08c379a000000000000000000000000000000000000000000000000000000000815260040161075f906144c5565b60405180910390fd5b5f836005015f6101000a81548160ff0219169083151502179055505f5f9054906101000a900473ffffffffffffffffffffffffffffffffffffffff1673ffffffffffffffffffffffffffffffffffffffff1663a9059cbb3385600101546040518363ffffffff1660e01b81526004016107e29291906144e3565b6020604051808303815f875af11580156107fe573d5f5f3e3d5ffd5b505050506040513d601f19601f82011682018060405250810190610822919061451e565b610861576040517f08c379a000000000000000000000000000000000000000000000000000000000815260040161085890614593565b60405180910390fd5b5f813461086e91906145b1565b90505f81111561091a5780600b5f3373ffffffffffffffffffffffffffffffffffffffff1673ffffffffffffffffffffffffffffffffffffffff1681526020019081526020015f205f8282546108c49190614448565b925050819055503373ffffffffffffffffffffffffffffffffffffffff167f2cefa31d4fd1171c56fad968423efd62755d8fcbc8b29f0b6d1fafd2c717c88d826040516109119190613dbd565b60405180910390a25b3373ffffffffffffffffffffffffffffffffffffffff167fee7d7344b250e80a1da46a3dbbed6dcbfd85906f3ee5ea986bd8c3832171bc8f60405160405180910390a250505050610969613ca3565b565b60025f9054906101000a900473ffffffffffffffffffffffffffffffffffffffff1673ffffffffffffffffffffffffffffffffffffffff163373ffffffffffffffffffffffffffffffffffffffff16146109fa576040517f08c379a00000000000000000000000000000000000000000000000000000000081526004016109f19061462e565b60405180910390fd5b8060038190555050565b60035481565b6009602052805f5260405f205f91509050805f015f9054906101000a900473ffffffffffffffffffffffffffffffffffffffff1690806001015490806002015490806003015490806004015490806005015f9054906101000a900460ff16905086565b610a75613c81565b5f60085f8381526020019081526020015f209050806007015f9054906101000a900460ff16610ad9576040517f08c379a0000000000000000000000000000000000000000000000000000000008152600401610ad090614696565b60405180910390fd5b8060050160149054906101000a900460ff1615610b2b576040517f08c379a0000000000000000000000000000000000000000000000000000000008152600401610b22906146fe565b60405180910390fd5b80600601544210610b71576040517f08c379a0000000000000000000000000000000000000000000000000000000008152600401610b6890614766565b60405180910390fd5b80600401543411610bb7576040517f08c379a0000000000000000000000000000000000000000000000000000000008152600401610bae906147ce565b60405180910390fd5b8060030154341015610bfe576040517f08c379a0000000000000000000000000000000000000000000000000000000008152600401610bf590614836565b60405180910390fd5b5f73ffffffffffffffffffffffffffffffffffffffff16816005015f9054906101000a900473ffffffffffffffffffffffffffffffffffffffff1673ffffffffffffffffffffffffffffffffffffffff1614610d44578060040154600b5f836005015f9054906101000a900473ffffffffffffffffffffffffffffffffffffffff1673ffffffffffffffffffffffffffffffffffffffff1673ffffffffffffffffffffffffffffffffffffffff1681526020019081526020015f205f828254610cc79190614448565b92505081905550806005015f9054906101000a900473ffffffffffffffffffffffffffffffffffffffff1673ffffffffffffffffffffffffffffffffffffffff167f2cefa31d4fd1171c56fad968423efd62755d8fcbc8b29f0b6d1fafd2c717c88d8260040154604051610d3b9190613dbd565b60405180910390a25b34816004018190555033816005015f6101000a81548173ffffffffffffffffffffffffffffffffffffffff021916908373ffffffffffffffffffffffffffffffffffffffff1602179055503373ffffffffffffffffffffffffffffffffffffffff16827f0e54eff26401bf69b81b26f60bd85ef47f5d85275c1d268d84f68d6897431c4734604051610dd69190613dbd565b60405180910390a350610de7613ca3565b50565b610df2613c81565b5f600a5f8381526020019081526020015f20905080600a015f9054906101000a900460ff16610e56576040517f08c379a0000000000000000000000000000000000000000000000000000000008152600401610e4d9061489e565b60405180910390fd5b80600a0160019054906101000a900460ff16610ea7576040517f08c379a0000000000000000000000000000000000000000000000000000000008152600401610e9e90614906565b60405180910390fd5b806008015f9054906101000a900473ffffffffffffffffffffffffffffffffffffffff1673ffffffffffffffffffffffffffffffffffffffff163373ffffffffffffffffffffffffffffffffffffffff1614610f38576040517f08c379a0000000000000000000000000000000000000000000000000000000008152600401610f2f9061496e565b60405180910390fd5b5f816007015411610f7e576040517f08c379a0000000000000000000000000000000000000000000000000000000008152600401610f75906149d6565b60405180910390fd5b80600701544211610fc4576040517f08c379a0000000000000000000000000000000000000000000000000000000008152600401610fbb90614a3e565b60405180910390fd5b5f81600a0160016101000a81548160ff021916908315150217905550806001015f9054906101000a900473ffffffffffffffffffffffffffffffffffffffff1673ffffffffffffffffffffffffffffffffffffffff166323b872dd3060025f9054906101000a900473ffffffffffffffffffffffffffffffffffffffff16856040518463ffffffff1660e01b815260040161106193929190614a5c565b5f604051808303815f87803b158015611078575f5ffd5b505af115801561108a573d5f5f3e3d5ffd5b505050505f5f9054906101000a900473ffffffffffffffffffffffffffffffffffffffff1673ffffffffffffffffffffffffffffffffffffffff1663a9059cbb826008015f9054906101000a900473ffffffffffffffffffffffffffffffffffffffff1683600901546040518363ffffffff1660e01b81526004016111109291906144e3565b6020604051808303815f875af115801561112c573d5f5f3e3d5ffd5b505050506040513d601f19601f82011682018060405250810190611150919061451e565b61118f576040517f08c379a000000000000000000000000000000000000000000000000000000000815260040161118690614593565b60405180910390fd5b50611198613ca3565b50565b600b602052805f5260405f205f915090505481565b6111b8613c81565b5f60075f8381526020019081526020015f2090508060040160019054906101000a900460ff1661121d576040517f08c379a000000000000000000000000000000000000000000000000000000000815260040161121490614adb565b60405180910390fd5b5f8160040160016101000a81548160ff0219169083151502179055505f612710600654836003015461124f91906143aa565b6112599190614418565b90505f81836003015461126c91906145b1565b9050826004015f9054906101000a900460ff161561148d575f5f9054906101000a900473ffffffffffffffffffffffffffffffffffffffff1673ffffffffffffffffffffffffffffffffffffffff166323b872dd33855f015f9054906101000a900473ffffffffffffffffffffffffffffffffffffffff16846040518463ffffffff1660e01b815260040161130393929190614a5c565b6020604051808303815f875af115801561131f573d5f5f3e3d5ffd5b505050506040513d601f19601f82011682018060405250810190611343919061451e565b611382576040517f08c379a000000000000000000000000000000000000000000000000000000000815260040161137990614b43565b60405180910390fd5b5f821115611488575f5f9054906101000a900473ffffffffffffffffffffffffffffffffffffffff1673ffffffffffffffffffffffffffffffffffffffff166323b872dd3360025f9054906101000a900473ffffffffffffffffffffffffffffffffffffffff16856040518463ffffffff1660e01b815260040161140893929190614a5c565b6020604051808303815f875af1158015611424573d5f5f3e3d5ffd5b505050506040513d601f19601f82011682018060405250810190611448919061451e565b611487576040517f08c379a000000000000000000000000000000000000000000000000000000000815260040161147e90614bab565b60405180910390fd5b5b611764565b82600301543410156114d4576040517f08c379a00000000000000000000000000000000000000000000000000000000081526004016114cb906144c5565b60405180910390fd5b80600b5f855f015f9054906101000a900473ffffffffffffffffffffffffffffffffffffffff1673ffffffffffffffffffffffffffffffffffffffff1673ffffffffffffffffffffffffffffffffffffffff1681526020019081526020015f205f8282546115429190614448565b92505081905550825f015f9054906101000a900473ffffffffffffffffffffffffffffffffffffffff1673ffffffffffffffffffffffffffffffffffffffff167f2cefa31d4fd1171c56fad968423efd62755d8fcbc8b29f0b6d1fafd2c717c88d826040516115b19190613dbd565b60405180910390a25f8211156116a55781600b5f60025f9054906101000a900473ffffffffffffffffffffffffffffffffffffffff1673ffffffffffffffffffffffffffffffffffffffff1673ffffffffffffffffffffffffffffffffffffffff1681526020019081526020015f205f82825461162e9190614448565b9250508190555060025f9054906101000a900473ffffffffffffffffffffffffffffffffffffffff1673ffffffffffffffffffffffffffffffffffffffff167f2cefa31d4fd1171c56fad968423efd62755d8fcbc8b29f0b6d1fafd2c717c88d8360405161169c9190613dbd565b60405180910390a25b5f8360030154346116b691906145b1565b90505f8111156117625780600b5f3373ffffffffffffffffffffffffffffffffffffffff1673ffffffffffffffffffffffffffffffffffffffff1681526020019081526020015f205f82825461170c9190614448565b925050819055503373ffffffffffffffffffffffffffffffffffffffff167f2cefa31d4fd1171c56fad968423efd62755d8fcbc8b29f0b6d1fafd2c717c88d826040516117599190613dbd565b60405180910390a25b505b826001015f9054906101000a900473ffffffffffffffffffffffffffffffffffffffff1673ffffffffffffffffffffffffffffffffffffffff166323b872dd3033876040518463ffffffff1660e01b81526004016117c493929190614a5c565b5f604051808303815f87803b1580156117db575f5ffd5b505af11580156117ed573d5f5f3e3d5ffd5b505050503373ffffffffffffffffffffffffffffffffffffffff16847ffa9b8d7a5322ce99e49fe0bb8a9dae40e0af71e721da0bab9d9bb9a92602c5b960405160405180910390a3505050611840613ca3565b50565b61184b613c81565b5f600a5f8481526020019081526020015f20905080600a0160019054906101000a900460ff166118b0576040517f08c379a00000000000000000000000000000000000000000000000000000000081526004016118a79061435f565b60405180910390fd5b80600a015f9054906101000a900460ff1615611901576040517f08c379a00000000000000000000000000000000000000000000000000000000081526004016118f890614c13565b60405180910390fd5b5f5f9054906101000a900473ffffffffffffffffffffffffffffffffffffffff1673ffffffffffffffffffffffffffffffffffffffff166323b872dd3330856040518463ffffffff1660e01b815260040161195e93929190614a5c565b6020604051808303815f875af115801561197a573d5f5f3e3d5ffd5b505050506040513d601f19601f8201168201806040525081019061199e919061451e565b6119dd576040517f08c379a00000000000000000000000000000000000000000000000000000000081526004016119d490614c7b565b60405180910390fd5b8060030154471015611a24576040517f08c379a0000000000000000000000000000000000000000000000000000000008152600401611a1b90614ce3565b60405180910390fd5b33816008015f6101000a81548173ffffffffffffffffffffffffffffffffffffffff021916908373ffffffffffffffffffffffffffffffffffffffff160217905550818160090181905550600181600a015f6101000a81548160ff021916908315150217905550428160060181905550806005015442611aa49190614448565b81600701819055508060030154600b5f835f015f9054906101000a900473ffffffffffffffffffffffffffffffffffffffff1673ffffffffffffffffffffffffffffffffffffffff1673ffffffffffffffffffffffffffffffffffffffff1681526020019081526020015f205f828254611b1e9190614448565b92505081905550805f015f9054906101000a900473ffffffffffffffffffffffffffffffffffffffff1673ffffffffffffffffffffffffffffffffffffffff167f2cefa31d4fd1171c56fad968423efd62755d8fcbc8b29f0b6d1fafd2c717c88d8260030154604051611b919190613dbd565b60405180910390a2827ffd39da9dabaf00e28b17867b31deb08293df967c9fe28d0b798643baf037691f33604051611bc99190614020565b60405180910390a250611bda613ca3565b5050565b6008602052805f5260405f205f91509050805f015f9054906101000a900473ffffffffffffffffffffffffffffffffffffffff1690806001015f9054906101000a900473ffffffffffffffffffffffffffffffffffffffff1690806002015490806003015490806004015490806005015f9054906101000a900473ffffffffffffffffffffffffffffffffffffffff16908060050160149054906101000a900460ff1690806006015490806007015f9054906101000a900460ff16905089565b5f5f9054906101000a900473ffffffffffffffffffffffffffffffffffffffff1681565b611cca613c81565b5f600a5f8381526020019081526020015f20905080600a015f9054906101000a900460ff16611d2e576040517f08c379a0000000000000000000000000000000000000000000000000000000008152600401611d259061489e565b60405180910390fd5b80600a0160019054906101000a900460ff16611d7f576040517f08c379a0000000000000000000000000000000000000000000000000000000008152600401611d7690614906565b60405180910390fd5b805f015f9054906101000a900473ffffffffffffffffffffffffffffffffffffffff1673ffffffffffffffffffffffffffffffffffffffff163373ffffffffffffffffffffffffffffffffffffffff1614611e0f576040517f08c379a0000000000000000000000000000000000000000000000000000000008152600401611e0690614d4b565b60405180910390fd5b5f61271082600401548360030154611e2791906143aa565b611e319190614418565b90505f818360030154611e449190614448565b905080341015611e89576040517f08c379a0000000000000000000000000000000000000000000000000000000008152600401611e8090614db3565b60405180910390fd5b5f83600a0160016101000a81548160ff021916908315150217905550826001015f9054906101000a900473ffffffffffffffffffffffffffffffffffffffff1673ffffffffffffffffffffffffffffffffffffffff166323b872dd30855f015f9054906101000a900473ffffffffffffffffffffffffffffffffffffffff16876040518463ffffffff1660e01b8152600401611f2793929190614a5c565b5f604051808303815f87803b158015611f3e575f5ffd5b505af1158015611f50573d5f5f3e3d5ffd5b505050505f5f9054906101000a900473ffffffffffffffffffffffffffffffffffffffff1673ffffffffffffffffffffffffffffffffffffffff1663a9059cbb846008015f9054906101000a900473ffffffffffffffffffffffffffffffffffffffff1685600901546040518363ffffffff1660e01b8152600401611fd69291906144e3565b6020604051808303815f875af1158015611ff2573d5f5f3e3d5ffd5b505050506040513d601f19601f82011682018060405250810190612016919061451e565b612055576040517f08c379a000000000000000000000000000000000000000000000000000000000815260040161204c90614593565b60405180910390fd5b5f6002836120639190614418565b90505f8111156121555780600b5f866008015f9054906101000a900473ffffffffffffffffffffffffffffffffffffffff1673ffffffffffffffffffffffffffffffffffffffff1673ffffffffffffffffffffffffffffffffffffffff1681526020019081526020015f205f8282546120dc9190614448565b92505081905550836008015f9054906101000a900473ffffffffffffffffffffffffffffffffffffffff1673ffffffffffffffffffffffffffffffffffffffff167f2cefa31d4fd1171c56fad968423efd62755d8fcbc8b29f0b6d1fafd2c717c88d8260405161214c9190613dbd565b60405180910390a25b5f823461216291906145b1565b90505f81111561220e5780600b5f3373ffffffffffffffffffffffffffffffffffffffff1673ffffffffffffffffffffffffffffffffffffffff1681526020019081526020015f205f8282546121b89190614448565b925050819055503373ffffffffffffffffffffffffffffffffffffffff167f2cefa31d4fd1171c56fad968423efd62755d8fcbc8b29f0b6d1fafd2c717c88d826040516122059190613dbd565b60405180910390a25b505050505061221b613ca3565b50565b60045481565b60025f9054906101000a900473ffffffffffffffffffffffffffffffffffffffff1681565b600a602052805f5260405f205f91509050805f015f9054906101000a900473ffffffffffffffffffffffffffffffffffffffff1690806001015f9054906101000a900473ffffffffffffffffffffffffffffffffffffffff1690806002015490806003015490806004015490806005015490806006015490806007015490806008015f9054906101000a900473ffffffffffffffffffffffffffffffffffffffff169080600901549080600a015f9054906101000a900460ff169080600a0160019054906101000a900460ff1690508c565b60025f9054906101000a900473ffffffffffffffffffffffffffffffffffffffff1673ffffffffffffffffffffffffffffffffffffffff163373ffffffffffffffffffffffffffffffffffffffff16146123aa576040517f08c379a00000000000000000000000000000000000000000000000000000000081526004016123a19061462e565b60405180910390fd5b8060058190555050565b60015f9054906101000a900473ffffffffffffffffffffffffffffffffffffffff1681565b6123e1613c81565b5f8211612423576040517f08c379a000000000000000000000000000000000000000000000000000000000815260040161241a90614e1b565b60405180910390fd5b5f8490503373ffffffffffffffffffffffffffffffffffffffff168173ffffffffffffffffffffffffffffffffffffffff16636352211e866040518263ffffffff1660e01b81526004016124779190613dbd565b602060405180830381865afa158015612492573d5f5f3e3d5ffd5b505050506040513d601f19601f820116820180604052508101906124b69190614e4d565b73ffffffffffffffffffffffffffffffffffffffff161461250c576040517f08c379a00000000000000000000000000000000000000000000000000000000081526004016125039061462e565b60405180910390fd5b8073ffffffffffffffffffffffffffffffffffffffff166323b872dd3330876040518463ffffffff1660e01b815260040161254993929190614a5c565b5f604051808303815f87803b158015612560575f5ffd5b505af1158015612572573d5f5f3e3d5ffd5b505050506040518060c001604052803373ffffffffffffffffffffffffffffffffffffffff1681526020018673ffffffffffffffffffffffffffffffffffffffff16815260200185815260200184815260200183151581526020016001151581525060075f8681526020019081526020015f205f820151815f015f6101000a81548173ffffffffffffffffffffffffffffffffffffffff021916908373ffffffffffffffffffffffffffffffffffffffff1602179055506020820151816001015f6101000a81548173ffffffffffffffffffffffffffffffffffffffff021916908373ffffffffffffffffffffffffffffffffffffffff16021790555060408201518160020155606082015181600301556080820151816004015f6101000a81548160ff02191690831515021790555060a08201518160040160016101000a81548160ff0219169083151502179055509050503373ffffffffffffffffffffffffffffffffffffffff16847f5f9c03de076f5063cd3ebcfe8ef7aa8af378e4b35a83c77ba9777e97083879a28560405161270c9190613dbd565b60405180910390a35061271d613ca3565b50505050565b61272b613c81565b5f831161276d576040517f08c379a000000000000000000000000000000000000000000000000000000000815260040161276490614ec2565b60405180910390fd5b5f81116127af576040517f08c379a00000000000000000000000000000000000000000000000000000000081526004016127a690614f2a565b60405180910390fd5b5f8590503373ffffffffffffffffffffffffffffffffffffffff168173ffffffffffffffffffffffffffffffffffffffff16636352211e876040518263ffffffff1660e01b81526004016128039190613dbd565b602060405180830381865afa15801561281e573d5f5f3e3d5ffd5b505050506040513d601f19601f820116820180604052508101906128429190614e4d565b73ffffffffffffffffffffffffffffffffffffffff1614612898576040517f08c379a000000000000000000000000000000000000000000000000000000000815260040161288f9061462e565b60405180910390fd5b8073ffffffffffffffffffffffffffffffffffffffff166323b872dd3330886040518463ffffffff1660e01b81526004016128d593929190614a5c565b5f604051808303815f87803b1580156128ec575f5ffd5b505af11580156128fe573d5f5f3e3d5ffd5b505050506040518061018001604052803373ffffffffffffffffffffffffffffffffffffffff1681526020018773ffffffffffffffffffffffffffffffffffffffff1681526020018681526020018581526020018481526020018381526020015f81526020015f81526020015f73ffffffffffffffffffffffffffffffffffffffff1681526020015f81526020015f1515815260200160011515815250600a5f8781526020019081526020015f205f820151815f015f6101000a81548173ffffffffffffffffffffffffffffffffffffffff021916908373ffffffffffffffffffffffffffffffffffffffff1602179055506020820151816001015f6101000a81548173ffffffffffffffffffffffffffffffffffffffff021916908373ffffffffffffffffffffffffffffffffffffffff16021790555060408201518160020155606082015181600301556080820151816004015560a0820151816005015560c0820151816006015560e08201518160070155610100820151816008015f6101000a81548173ffffffffffffffffffffffffffffffffffffffff021916908373ffffffffffffffffffffffffffffffffffffffff160217905550610120820151816009015561014082015181600a015f6101000a81548160ff02191690831515021790555061016082015181600a0160016101000a81548160ff021916908315150217905550905050847f181ae03d67e4488ceffc1f3c66aec96ee2880dfe72f056bf1ef7c42ddfa3902185604051612b389190613dbd565b60405180910390a250612b49613ca3565b5050505050565b612b58613c81565b5f8311612b9a576040517f08c379a0000000000000000000000000000000000000000000000000000000008152600401612b9190614e1b565b60405180910390fd5b5f8111612bdc576040517f08c379a0000000000000000000000000000000000000000000000000000000008152600401612bd390614f2a565b60405180910390fd5b8115612c1d576040517f08c379a0000000000000000000000000000000000000000000000000000000008152600401612c14906146fe565b60405180910390fd5b5f8590503373ffffffffffffffffffffffffffffffffffffffff168173ffffffffffffffffffffffffffffffffffffffff16636352211e876040518263ffffffff1660e01b8152600401612c719190613dbd565b602060405180830381865afa158015612c8c573d5f5f3e3d5ffd5b505050506040513d601f19601f82011682018060405250810190612cb09190614e4d565b73ffffffffffffffffffffffffffffffffffffffff1614612d06576040517f08c379a0000000000000000000000000000000000000000000000000000000008152600401612cfd9061462e565b60405180910390fd5b8073ffffffffffffffffffffffffffffffffffffffff166323b872dd3330886040518463ffffffff1660e01b8152600401612d4393929190614a5c565b5f604051808303815f87803b158015612d5a575f5ffd5b505af1158015612d6c573d5f5f3e3d5ffd5b505050506040518061012001604052803373ffffffffffffffffffffffffffffffffffffffff1681526020018773ffffffffffffffffffffffffffffffffffffffff1681526020018681526020018581526020015f81526020015f73ffffffffffffffffffffffffffffffffffffffff1681526020015f151581526020018342612df69190614448565b81526020016001151581525060085f8781526020019081526020015f205f820151815f015f6101000a81548173ffffffffffffffffffffffffffffffffffffffff021916908373ffffffffffffffffffffffffffffffffffffffff1602179055506020820151816001015f6101000a81548173ffffffffffffffffffffffffffffffffffffffff021916908373ffffffffffffffffffffffffffffffffffffffff16021790555060408201518160020155606082015181600301556080820151816004015560a0820151816005015f6101000a81548173ffffffffffffffffffffffffffffffffffffffff021916908373ffffffffffffffffffffffffffffffffffffffff16021790555060c08201518160050160146101000a81548160ff02191690831515021790555060e08201518160060155610100820151816007015f6101000a81548160ff021916908315150217905550905050847f1bb96dff6ab5005aff98cdc0cf176bb7d8e0423cb48e02217d35b042cec81e9f60405160405180910390a250612f84613ca3565b5050505050565b60025f9054906101000a900473ffffffffffffffffffffffffffffffffffffffff1673ffffffffffffffffffffffffffffffffffffffff163373ffffffffffffffffffffffffffffffffffffffff161461301a576040517f08c379a00000000000000000000000000000000000000000000000000000000081526004016130119061462e565b60405180910390fd5b8060068190555050565b61302c613c81565b5f60085f8381526020019081526020015f209050806007015f9054906101000a900460ff16613090576040517f08c379a000000000000000000000000000000000000000000000000000000000815260040161308790614696565b60405180910390fd5b80600601544210156130d7576040517f08c379a00000000000000000000000000000000000000000000000000000000081526004016130ce90614a3e565b60405180910390fd5b5f816007015f6101000a81548160ff0219169083151502179055505f73ffffffffffffffffffffffffffffffffffffffff16816005015f9054906101000a900473ffffffffffffffffffffffffffffffffffffffff1673ffffffffffffffffffffffffffffffffffffffff160361323557806001015f9054906101000a900473ffffffffffffffffffffffffffffffffffffffff1673ffffffffffffffffffffffffffffffffffffffff166323b872dd30835f015f9054906101000a900473ffffffffffffffffffffffffffffffffffffffff16856040518463ffffffff1660e01b81526004016131ca93929190614a5c565b5f604051808303815f87803b1580156131e1575f5ffd5b505af11580156131f3573d5f5f3e3d5ffd5b50505050817fc07789fac136048b605fef8e227ab89b2e33d8afc9ab4817d374197cd81443d65f6040516132279190614020565b60405180910390a25061354a565b5f612710600654836004015461324b91906143aa565b6132559190614418565b90505f81836004015461326891906145b1565b905080600b5f855f015f9054906101000a900473ffffffffffffffffffffffffffffffffffffffff1673ffffffffffffffffffffffffffffffffffffffff1673ffffffffffffffffffffffffffffffffffffffff1681526020019081526020015f205f8282546132d89190614448565b92505081905550825f015f9054906101000a900473ffffffffffffffffffffffffffffffffffffffff1673ffffffffffffffffffffffffffffffffffffffff167f2cefa31d4fd1171c56fad968423efd62755d8fcbc8b29f0b6d1fafd2c717c88d826040516133479190613dbd565b60405180910390a25f82111561343b5781600b5f60025f9054906101000a900473ffffffffffffffffffffffffffffffffffffffff1673ffffffffffffffffffffffffffffffffffffffff1673ffffffffffffffffffffffffffffffffffffffff1681526020019081526020015f205f8282546133c49190614448565b9250508190555060025f9054906101000a900473ffffffffffffffffffffffffffffffffffffffff1673ffffffffffffffffffffffffffffffffffffffff167f2cefa31d4fd1171c56fad968423efd62755d8fcbc8b29f0b6d1fafd2c717c88d836040516134329190613dbd565b60405180910390a25b826001015f9054906101000a900473ffffffffffffffffffffffffffffffffffffffff1673ffffffffffffffffffffffffffffffffffffffff166323b872dd30856005015f9054906101000a900473ffffffffffffffffffffffffffffffffffffffff16876040518463ffffffff1660e01b81526004016134be93929190614a5c565b5f604051808303815f87803b1580156134d5575f5ffd5b505af11580156134e7573d5f5f3e3d5ffd5b50505050837fc07789fac136048b605fef8e227ab89b2e33d8afc9ab4817d374197cd81443d6846005015f9054906101000a900473ffffffffffffffffffffffffffffffffffffffff1660405161353e9190614020565b60405180910390a25050505b613552613ca3565b50565b60055481565b60065481565b6007602052805f5260405f205f91509050805f015f9054906101000a900473ffffffffffffffffffffffffffffffffffffffff1690806001015f9054906101000a900473ffffffffffffffffffffffffffffffffffffffff1690806002015490806003015490806004015f9054906101000a900460ff16908060040160019054906101000a900460ff16905086565b6135f8613c81565b5f600b5f3373ffffffffffffffffffffffffffffffffffffffff1673ffffffffffffffffffffffffffffffffffffffff1681526020019081526020015f205490505f811161367b576040517f08c379a000000000000000000000000000000000000000000000000000000000815260040161367290614f92565b60405180910390fd5b5f600b5f3373ffffffffffffffffffffffffffffffffffffffff1673ffffffffffffffffffffffffffffffffffffffff1681526020019081526020015f20819055505f3373ffffffffffffffffffffffffffffffffffffffff16826040516136e290614fdd565b5f6040518083038185875af1925050503d805f811461371c576040519150601f19603f3d011682016040523d82523d5f602084013e613721565b606091505b5050905080613765576040517f08c379a000000000000000000000000000000000000000000000000000000000815260040161375c9061503b565b60405180910390fd5b3373ffffffffffffffffffffffffffffffffffffffff167f94b2de810873337ed265c5f8cf98c9cffefa06b8607f9a2f1fbaebdfbcfbef1c836040516137ab9190613dbd565b60405180910390a250506137bd613ca3565b565b60025f9054906101000a900473ffffffffffffffffffffffffffffffffffffffff1673ffffffffffffffffffffffffffffffffffffffff163373ffffffffffffffffffffffffffffffffffffffff161461384e576040517f08c379a00000000000000000000000000000000000000000000000000000000081526004016138459061462e565b60405180910390fd5b8060048190555050565b613860613c81565b5f81116138a2576040517f08c379a0000000000000000000000000000000000000000000000000000000008152600401613899906150a3565b60405180910390fd5b60095f3373ffffffffffffffffffffffffffffffffffffffff1673ffffffffffffffffffffffffffffffffffffffff1681526020019081526020015f206005015f9054906101000a900460ff161561392f576040517f08c379a00000000000000000000000000000000000000000000000000000000081526004016139269061510b565b60405180910390fd5b5f5f9054906101000a900473ffffffffffffffffffffffffffffffffffffffff1673ffffffffffffffffffffffffffffffffffffffff166323b872dd3330846040518463ffffffff1660e01b815260040161398c93929190614a5c565b6020604051808303815f875af11580156139a8573d5f5f3e3d5ffd5b505050506040513d601f19601f820116820180604052508101906139cc919061451e565b613a0b576040517f08c379a0000000000000000000000000000000000000000000000000000000008152600401613a0290615173565b60405180910390fd5b5f68056bc75e2d6310000082613a219190614418565b905080471015613a66576040517f08c379a0000000000000000000000000000000000000000000000000000000008152600401613a5d906151db565b60405180910390fd5b6040518060c001604052803373ffffffffffffffffffffffffffffffffffffffff16815260200183815260200182815260200142815260200160055442613aad9190614448565b81526020016001151581525060095f3373ffffffffffffffffffffffffffffffffffffffff1673ffffffffffffffffffffffffffffffffffffffff1681526020019081526020015f205f820151815f015f6101000a81548173ffffffffffffffffffffffffffffffffffffffff021916908373ffffffffffffffffffffffffffffffffffffffff1602179055506020820151816001015560408201518160020155606082015181600301556080820151816004015560a0820151816005015f6101000a81548160ff02191690831515021790555090505080600b5f3373ffffffffffffffffffffffffffffffffffffffff1673ffffffffffffffffffffffffffffffffffffffff1681526020019081526020015f205f828254613bd09190614448565b925050819055503373ffffffffffffffffffffffffffffffffffffffff167f2cefa31d4fd1171c56fad968423efd62755d8fcbc8b29f0b6d1fafd2c717c88d82604051613c1d9190613dbd565b60405180910390a23373ffffffffffffffffffffffffffffffffffffffff167f63d0864ecddf0b3a8e5ad9ccc36d1a0d5df6b922b181437ff748cf84dfb9ea7a8383604051613c6d9291906151f9565b60405180910390a250613c7e613ca3565b50565b613c89613cbd565b6002613c9b613c96613cfe565b613d27565b5f0181905550565b6001613cb5613cb0613cfe565b613d27565b5f0181905550565b613cc5613d30565b15613cfc576040517f3ee5aeb500000000000000000000000000000000000000000000000000000000815260040160405180910390fd5b565b5f7f9b779b17422d0df92223018b32b4d1fa46e071723d6817e2486d003becc55f005f1b905090565b5f819050919050565b5f6002613d43613d3e613cfe565b613d27565b5f015414905090565b5f5ffd5b5f819050919050565b613d6281613d50565b8114613d6c575f5ffd5b50565b5f81359050613d7d81613d59565b92915050565b5f60208284031215613d9857613d97613d4c565b5b5f613da584828501613d6f565b91505092915050565b613db781613d50565b82525050565b5f602082019050613dd05f830184613dae565b92915050565b5f73ffffffffffffffffffffffffffffffffffffffff82169050919050565b5f613dff82613dd6565b9050919050565b613e0f81613df5565b8114613e19575f5ffd5b50565b5f81359050613e2a81613e06565b92915050565b5f60208284031215613e4557613e44613d4c565b5b5f613e5284828501613e1c565b91505092915050565b613e6481613df5565b82525050565b5f8115159050919050565b613e7e81613e6a565b82525050565b5f60c082019050613e975f830189613e5b565b613ea46020830188613dae565b613eb16040830187613dae565b613ebe6060830186613dae565b613ecb6080830185613dae565b613ed860a0830184613e75565b979650505050505050565b5f5f60408385031215613ef957613ef8613d4c565b5b5f613f0685828601613d6f565b9250506020613f1785828601613d6f565b9150509250929050565b5f61012082019050613f355f83018c613e5b565b613f42602083018b613e5b565b613f4f604083018a613dae565b613f5c6060830189613dae565b613f696080830188613dae565b613f7660a0830187613e5b565b613f8360c0830186613e75565b613f9060e0830185613dae565b613f9e610100830184613e75565b9a9950505050505050505050565b5f819050919050565b5f613fcf613fca613fc584613dd6565b613fac565b613dd6565b9050919050565b5f613fe082613fb5565b9050919050565b5f613ff182613fd6565b9050919050565b61400181613fe7565b82525050565b5f60208201905061401a5f830184613ff8565b92915050565b5f6020820190506140335f830184613e5b565b92915050565b5f6101808201905061404d5f83018f613e5b565b61405a602083018e613e5b565b614067604083018d613dae565b614074606083018c613dae565b614081608083018b613dae565b61408e60a083018a613dae565b61409b60c0830189613dae565b6140a860e0830188613dae565b6140b6610100830187613e5b565b6140c4610120830186613dae565b6140d2610140830185613e75565b6140e0610160830184613e75565b9d9c50505050505050505050505050565b5f6140fb82613fd6565b9050919050565b61410b816140f1565b82525050565b5f6020820190506141245f830184614102565b92915050565b61413381613e6a565b811461413d575f5ffd5b50565b5f8135905061414e8161412a565b92915050565b5f5f5f5f6080858703121561416c5761416b613d4c565b5b5f61417987828801613e1c565b945050602061418a87828801613d6f565b935050604061419b87828801613d6f565b92505060606141ac87828801614140565b91505092959194509250565b5f5f5f5f5f60a086880312156141d1576141d0613d4c565b5b5f6141de88828901613e1c565b95505060206141ef88828901613d6f565b945050604061420088828901613d6f565b935050606061421188828901613d6f565b925050608061422288828901613d6f565b9150509295509295909350565b5f5f5f5f5f60a0868803121561424857614247613d4c565b5b5f61425588828901613e1c565b955050602061426688828901613d6f565b945050604061427788828901613d6f565b935050606061428888828901614140565b925050608061429988828901613d6f565b9150509295509295909350565b5f60c0820190506142b95f830189613e5b565b6142c66020830188613e5b565b6142d36040830187613dae565b6142e06060830186613dae565b6142ed6080830185613e75565b6142fa60a0830184613e75565b979650505050505050565b5f82825260208201905092915050565b7f4e6f206c6f616e000000000000000000000000000000000000000000000000005f82015250565b5f614349600783614305565b915061435482614315565b602082019050919050565b5f6020820190508181035f8301526143768161433d565b9050919050565b7f4e487b71000000000000000000000000000000000000000000000000000000005f52601160045260245ffd5b5f6143b482613d50565b91506143bf83613d50565b92508282026143cd81613d50565b915082820484148315176143e4576143e361437d565b5b5092915050565b7f4e487b71000000000000000000000000000000000000000000000000000000005f52601260045260245ffd5b5f61442282613d50565b915061442d83613d50565b92508261443d5761443c6143eb565b5b828204905092915050565b5f61445282613d50565b915061445d83613d50565b92508282019050808211156144755761447461437d565b5b92915050565b7f4e656564206d6f726520455448000000000000000000000000000000000000005f82015250565b5f6144af600d83614305565b91506144ba8261447b565b602082019050919050565b5f6020820190508181035f8301526144dc816144a3565b9050919050565b5f6040820190506144f65f830185613e5b565b6145036020830184613dae565b9392505050565b5f815190506145188161412a565b92915050565b5f6020828403121561453357614532613d4c565b5b5f6145408482850161450a565b91505092915050565b7f4445582072657475726e206661696c65640000000000000000000000000000005f82015250565b5f61457d601183614305565b915061458882614549565b602082019050919050565b5f6020820190508181035f8301526145aa81614571565b9050919050565b5f6145bb82613d50565b91506145c683613d50565b92508282039050818111156145de576145dd61437d565b5b92915050565b7f4e6f74206f776e657200000000000000000000000000000000000000000000005f82015250565b5f614618600983614305565b9150614623826145e4565b602082019050919050565b5f6020820190508181035f8301526146458161460c565b9050919050565b7f4e6f2061756374696f6e000000000000000000000000000000000000000000005f82015250565b5f614680600a83614305565b915061468b8261464c565b602082019050919050565b5f6020820190508181035f8301526146ad81614674565b9050919050565b7f444558206269647320756e737570706f727465640000000000000000000000005f82015250565b5f6146e8601483614305565b91506146f3826146b4565b602082019050919050565b5f6020820190508181035f830152614715816146dc565b9050919050565b7f456e6465640000000000000000000000000000000000000000000000000000005f82015250565b5f614750600583614305565b915061475b8261471c565b602082019050919050565b5f6020820190508181035f83015261477d81614744565b9050919050565b7f42696420746f6f206c6f770000000000000000000000000000000000000000005f82015250565b5f6147b8600b83614305565b91506147c382614784565b602082019050919050565b5f6020820190508181035f8301526147e5816147ac565b9050919050565b7f42656c6f77206d696e696d756d000000000000000000000000000000000000005f82015250565b5f614820600d83614305565b915061482b826147ec565b602082019050919050565b5f6020820190508181035f83015261484d81614814565b9050919050565b7f4e6f2066756e64696e67000000000000000000000000000000000000000000005f82015250565b5f614888600a83614305565b915061489382614854565b602082019050919050565b5f6020820190508181035f8301526148b58161487c565b9050919050565b7f496e616374697665206c6f616e000000000000000000000000000000000000005f82015250565b5f6148f0600d83614305565b91506148fb826148bc565b602082019050919050565b5f6020820190508181035f83015261491d816148e4565b9050919050565b7f4e6f74206c656e646572000000000000000000000000000000000000000000005f82015250565b5f614958600a83614305565b915061496382614924565b602082019050919050565b5f6020820190508181035f8301526149858161494c565b9050919050565b7f446561646c696e65206e6f7420736574000000000000000000000000000000005f82015250565b5f6149c0601083614305565b91506149cb8261498c565b602082019050919050565b5f6020820190508181035f8301526149ed816149b4565b9050919050565b7f546f6f206561726c7900000000000000000000000000000000000000000000005f82015250565b5f614a28600983614305565b9150614a33826149f4565b602082019050919050565b5f6020820190508181035f830152614a5581614a1c565b9050919050565b5f606082019050614a6f5f830186613e5b565b614a7c6020830185613e5b565b614a896040830184613dae565b949350505050565b7f4e6f74206c6973746564000000000000000000000000000000000000000000005f82015250565b5f614ac5600a83614305565b9150614ad082614a91565b602082019050919050565b5f6020820190508181035f830152614af281614ab9565b9050919050565b7f4445582073656c6c6572207061796d656e74206661696c6564000000000000005f82015250565b5f614b2d601983614305565b9150614b3882614af9565b602082019050919050565b5f6020820190508181035f830152614b5a81614b21565b9050919050565b7f44455820666565207061796d656e74206661696c6564000000000000000000005f82015250565b5f614b95601683614305565b9150614ba082614b61565b602082019050919050565b5f6020820190508181035f830152614bc281614b89565b9050919050565b7f46756e64656400000000000000000000000000000000000000000000000000005f82015250565b5f614bfd600683614305565b9150614c0882614bc9565b602082019050919050565b5f6020820190508181035f830152614c2a81614bf1565b9050919050565b7f444558206661696c6564000000000000000000000000000000000000000000005f82015250565b5f614c65600a83614305565b9150614c7082614c31565b602082019050919050565b5f6020820190508181035f830152614c9281614c59565b9050919050565b7f4e6f2045544800000000000000000000000000000000000000000000000000005f82015250565b5f614ccd600683614305565b9150614cd882614c99565b602082019050919050565b5f6020820190508181035f830152614cfa81614cc1565b9050919050565b7f4e6f7420626f72726f77657200000000000000000000000000000000000000005f82015250565b5f614d35600c83614305565b9150614d4082614d01565b602082019050919050565b5f6020820190508181035f830152614d6281614d29565b9050919050565b7f4e656564204554480000000000000000000000000000000000000000000000005f82015250565b5f614d9d600883614305565b9150614da882614d69565b602082019050919050565b5f6020820190508181035f830152614dca81614d91565b9050919050565b7f496e76616c6964207072696365000000000000000000000000000000000000005f82015250565b5f614e05600d83614305565b9150614e1082614dd1565b602082019050919050565b5f6020820190508181035f830152614e3281614df9565b9050919050565b5f81519050614e4781613e06565b92915050565b5f60208284031215614e6257614e61613d4c565b5b5f614e6f84828501614e39565b91505092915050565b7f496e76616c6964204554480000000000000000000000000000000000000000005f82015250565b5f614eac600b83614305565b9150614eb782614e78565b602082019050919050565b5f6020820190508181035f830152614ed981614ea0565b9050919050565b7f496e76616c6964206475726174696f6e000000000000000000000000000000005f82015250565b5f614f14601083614305565b9150614f1f82614ee0565b602082019050919050565b5f6020820190508181035f830152614f4181614f08565b9050919050565b7f4e6f2070656e64696e67204554480000000000000000000000000000000000005f82015250565b5f614f7c600e83614305565b9150614f8782614f48565b602082019050919050565b5f6020820190508181035f830152614fa981614f70565b9050919050565b5f81905092915050565b50565b5f614fc85f83614fb0565b9150614fd382614fba565b5f82019050919050565b5f614fe782614fbd565b9150819050919050565b7f455448207769746864726177206661696c6564000000000000000000000000005f82015250565b5f615025601383614305565b915061503082614ff1565b602082019050919050565b5f6020820190508181035f83015261505281615019565b9050919050565b7f496e76616c696420636f6c6c61746572616c00000000000000000000000000005f82015250565b5f61508d601283614305565b915061509882615059565b602082019050919050565b5f6020820190508181035f8301526150ba81615081565b9050919050565b7f4c6f616e206578697374730000000000000000000000000000000000000000005f82015250565b5f6150f5600b83614305565b9150615100826150c1565b602082019050919050565b5f6020820190508181035f830152615122816150e9565b9050919050565b7f444558207472616e73666572206661696c6564000000000000000000000000005f82015250565b5f61515d601383614305565b915061516882615129565b602082019050919050565b5f6020820190508181035f83015261518a81615151565b9050919050565b7f4e6f206c697175696469747900000000000000000000000000000000000000005f82015250565b5f6151c5600c83614305565b91506151d082615191565b602082019050919050565b5f6020820190508181035f8301526151f2816151b9565b9050919050565b5f60408201905061520c5f830185613dae565b6152196020830184613dae565b939250505056fea2646970667358221220b9c5c6a321fb9fb4a0f0258372c4b13f5fa1cc0211c49183577a566e245bf1ad64736f6c634300081c0033",
  "linkReferences": {},
  "deployedLinkReferences": {},
  "immutableReferences": {},
  "inputSourceName": "project/contracts/DEXNFTMarket.sol",
  "buildInfoId": "solc-0_8_28-1ea02298c4f29c3d96ab80f2e68a8c196de8d6bb"
}