{
  "_format": "hh3-artifact-1",
  "contractName": "DEXToken",
  "sourceName": "contracts/DEXToken.sol",
  "abi": [
    {
      "inputs": [
        {
          "internalType": "uint256",
          "name": "initialSupply",
          "type": "uint256"
        },
        {
          "internalType": "uint256",
          "name": "initialPrice",
          "type": "uint256"
        }
      ],
      "stateMutability": "nonpayable",
      "type": "constructor"
    },
    {
      "inputs": [
        {
          "internalType": "address",
          "name": "spender",
          "type": "address"
        },
        {
          "internalType": "uint256",
          "name": "allowance",
          "type": "uint256"
        },
        {
          "internalType": "uint256",
          "name": "needed",
          "type": "uint256"
        }
      ],
      "name": "ERC20InsufficientAllowance",
      "type": "error"
    },
    {
      "inputs": [
        {
          "internalType": "address",
          "name": "sender",
          "type": "address"
        },
        {
          "internalType": "uint256",
          "name": "balance",
          "type": "uint256"
        },
        {
          "internalType": "uint256",
          "name": "needed",
          "type": "uint256"
        }
      ],
      "name": "ERC20InsufficientBalance",
      "type": "error"
    },
    {
      "inputs": [
        {
          "internalType": "address",
          "name": "approver",
          "type": "address"
        }
      ],
      "name": "ERC20InvalidApprover",
      "type": "error"
    },
    {
      "inputs": [
        {
          "internalType": "address",
          "name": "receiver",
          "type": "address"
        }
      ],
      "name": "ERC20InvalidReceiver",
      "type": "error"
    },
    {
      "inputs": [
        {
          "internalType": "address",
          "name": "sender",
          "type": "address"
        }
      ],
      "name": "ERC20InvalidSender",
      "type": "error"
    },
    {
      "inputs": [
        {
          "internalType": "address",
          "name": "spender",
          "type": "address"
        }
      ],
      "name": "ERC20InvalidSpender",
      "type": "error"
    },
    {
      "inputs": [
        {
          "internalType": "address",
          "name": "owner",
          "type": "address"
        }
      ],
      "name": "OwnableInvalidOwner",
      "type": "error"
    },
    {
      "inputs": [
        {
          "internalType": "address",
          "name": "account",
          "type": "address"
        }
      ],
      "name": "OwnableUnauthorizedAccount",
      "type": "error"
    },
    {
      "anonymous": false,
      "inputs": [
        {
          "indexed": true,
          "internalType": "address",
          "name": "owner",
          "type": "address"
        },
        {
          "indexed": true,
          "internalType": "address",
          "name": "spender",
          "type": "address"
        },
        {
          "indexed": false,
          "internalType": "uint256",
          "name": "value",
          "type": "uint256"
        }
      ],
      "name": "Approval",
      "type": "event"
    },
    {
      "anonymous": false,
      "inputs": [
        {
          "indexed": true,
          "internalType": "address",
          "name": "buyer",
          "type": "address"
        },
        {
          "indexed": false,
          "internalType": "uint256",
          "name": "ethSpent",
          "type": "uint256"
        },
        {
          "indexed": false,
          "internalType": "uint256",
          "name": "dexReceived",
          "type": "uint256"
        }
      ],
      "name": "DEXPurchased",
      "type": "event"
    },
    {
      "anonymous": false,
      "inputs": [
        {
          "indexed": true,
          "internalType": "address",
          "name": "seller",
          "type": "address"
        },
        {
          "indexed": false,
          "internalType": "uint256",
          "name": "dexSold",
          "type": "uint256"
        },
        {
          "indexed": false,
          "internalType": "uint256",
          "name": "ethReceived",
          "type": "uint256"
        }
      ],
      "name": "DEXSold",
      "type": "event"
    },
    {
      "anonymous": false,
      "inputs": [
        {
          "indexed": true,
          "internalType": "address",
          "name": "previousOwner",
          "type": "address"
        },
        {
          "indexed": true,
          "internalType": "address",
          "name": "newOwner",
          "type": "address"
        }
      ],
      "name": "OwnershipTransferred",
      "type": "event"
    },
    {
      "anonymous": false,
      "inputs": [
        {
          "indexed": false,
          "internalType": "uint256",
          "name": "oldPrice",
          "type": "uint256"
        },
        {
          "indexed": false,
          "internalType": "uint256",
          "name": "newPrice",
          "type": "uint256"
        }
      ],
      "name": "PriceUpdated",
      "type": "event"
    },
    {
      "anonymous": false,
      "inputs": [
        {
          "indexed": true,
          "internalType": "address",
          "name": "from",
          "type": "address"
        },
        {
          "indexed": true,
          "internalType": "address",
          "name": "to",
          "type": "address"
        },
        {
          "indexed": false,
          "internalType": "uint256",
          "name": "value",
          "type": "uint256"
        }
      ],
      "name": "Transfer",
      "type": "event"
    },
    {
      "inputs": [
        {
          "internalType": "address",
          "name": "owner",
          "type": "address"
        },
        {
          "internalType": "address",
          "name": "spender",
          "type": "address"
        }
      ],
      "name": "allowance",
      "outputs": [
        {
          "internalType": "uint256",
          "name": "",
          "type": "uint256"
        }
      ],
      "stateMutability": "view",
      "type": "function"
    },
    {
      "inputs": [
        {
          "internalType": "address",
          "name": "spender",
          "type": "address"
        },
        {
          "internalType": "uint256",
          "name": "value",
          "type": "uint256"
        }
      ],
      "name": "approve",
      "outputs": [
        {
          "internalType": "bool",
          "name": "",
          "type": "bool"
        }
      ],
      "stateMutability": "nonpayable",
      "type": "function"
    },
    {
      "inputs": [
        {
          "internalType": "address",
          "name": "account",
          "type": "address"
        }
      ],
      "name": "balanceOf",
      "outputs": [
        {
          "internalType": "uint256",
          "name": "",
          "type": "uint256"
        }
      ],
      "stateMutability": "view",
      "type": "function"
    },
    {
      "inputs": [],
      "name": "buyDEX",
      "outputs": [],
      "stateMutability": "payable",
      "type": "function"
    },
    {
      "inputs": [],
      "name": "decimals",
      "outputs": [
        {
          "internalType": "uint8",
          "name": "",
          "type": "uint8"
        }
      ],
      "stateMutability": "view",
      "type": "function"
    },
    {
      "inputs": [],
      "name": "getETHReserve",
      "outputs": [
        {
          "internalType": "uint256",
          "name": "",
          "type": "uint256"
        }
      ],
      "stateMutability": "view",
      "type": "function"
    },
    {
      "inputs": [
        {
          "internalType": "address",
          "name": "to",
          "type": "address"
        },
        {
          "internalType": "uint256",
          "name": "amount",
          "type": "uint256"
        }
      ],
      "name": "mint",
      "outputs": [],
      "stateMutability": "nonpayable",
      "type": "function"
    },
    {
      "inputs": [],
      "name": "name",
      "outputs": [
        {
          "internalType": "string",
          "name": "",
          "type": "string"
        }
      ],
      "stateMutability": "view",
      "type": "function"
    },
    {
      "inputs": [],
      "name": "owner",
      "outputs": [
        {
          "internalType": "address",
          "name": "",
          "type": "address"
        }
      ],
      "stateMutability": "view",
      "type": "function"
    },
    {
      "inputs": [],
      "name": "renounceOwnership",
      "outputs": [],
      "stateMutability": "nonpayable",
      "type": "function"
    },
    {
      "inputs": [
        {
          "internalType": "uint256",
          "name": "amount",
          "type": "uint256"
        }
      ],
      "name": "sellDEX",
      "outputs": [],
      "stateMutability": "nonpayable",
      "type": "function"
    },
    {
      "inputs": [
        {
          "internalType": "uint256",
          "name": "newPrice",
          "type": "uint256"
        }
      ],
      "name": "setTokenPrice",
      "outputs": [],
      "stateMutability": "nonpayable",
      "type": "function"
    },
    {
      "inputs": [],
      "name": "symbol",
      "outputs": [
        {
          "internalType": "string",
          "name": "",
          "type": "string"
        }
      ],
      "stateMutability": "view",
      "type": "function"
    },
    {
      "inputs": [],
      "name": "tokenPrice",
      "outputs": [
        {
          "internalType": "uint256",
          "name": "",
          "type": "uint256"
        }
      ],
      "stateMutability": "view",
      "type": "function"
    },
    {
      "inputs": [],
      "name": "totalSupply",
      "outputs": [
        {
          "internalType": "uint256",
          "name": "",
          "type": "uint256"
        }
      ],
      "stateMutability": "view",
      "type": "function"
    },
    {
      "inputs": [
        {
          "internalType": "address",
          "name": "to",
          "type": "address"
        },
        {
          "internalType": "uint256",
          "name": "value",
          "type": "uint256"
        }
      ],
      "name": "transfer",
      "outputs": [
        {
          "internalType": "bool",
          "name": "",
          "type": "bool"
        }
      ],
      "stateMutability": "nonpayable",
      "type": "function"
    },
    {
      "inputs": [
        {
          "internalType": "address",
          "name": "from",
          "type": "address"
        },
        {
          "internalType": "address",
          "name": "to",
          "type": "address"
        },
        {
          "internalType": "uint256",
          "name": "value",
          "type": "uint256"
        }
      ],
      "name": "transferFrom",
      "outputs": [
        {
          "internalType": "bool",
          "name": "",
          "type": "bool"
        }
      ],
      "stateMutability": "nonpayable",
      "type": "function"
    },
    {
      "inputs": [
        {
          "internalType": "address",
          "name": "newOwner",
          "type": "address"
        }
      ],
      "name": "transferOwnership",
      "outputs": [],
      "stateMutability": "nonpayable",
      "type": "function"
    },
    {
      "stateMutability": "payable",
      "type": "receive"
    }
  ],
  "bytecode": "0x608060405234801561000f575f5ffd5b5060405161258338038061258383398181016040528101906100319190610522565b336040518060400160405280600981526020017f44455820546f6b656e00000000000000000000000000000000000000000000008152506040518060400160405280600381526020017f444558000000000000000000000000000000000000000000000000000000000081525081600390816100ad9190610794565b5080600490816100bd9190610794565b5050505f73ffffffffffffffffffffffffffffffffffffffff168173ffffffffffffffffffffffffffffffffffffffff1603610130575f6040517f1e4fbdf700000000000000000000000000000000000000000000000000000000815260040161012791906108a2565b60405180910390fd5b61013f8161018260201b60201c565b508060068190555061017b3061015961024560201b60201c565b600a6101659190610a23565b846101709190610a6d565b61024d60201b60201c565b5050610b3e565b5f60055f9054906101000a900473ffffffffffffffffffffffffffffffffffffffff1690508160055f6101000a81548173ffffffffffffffffffffffffffffffffffffffff021916908373ffffffffffffffffffffffffffffffffffffffff1602179055508173ffffffffffffffffffffffffffffffffffffffff168173ffffffffffffffffffffffffffffffffffffffff167f8be0079c531659141344cd1fd0a4f28419497f9722a3daafe3b4186f6b6457e060405160405180910390a35050565b5f6012905090565b5f73ffffffffffffffffffffffffffffffffffffffff168273ffffffffffffffffffffffffffffffffffffffff16036102bd575f6040517fec442f050000000000000000000000000000000000000000000000000000000081526004016102b491906108a2565b60405180910390fd5b6102ce5f83836102d260201b60201c565b5050565b5f73ffffffffffffffffffffffffffffffffffffffff168373ffffffffffffffffffffffffffffffffffffffff1603610322578060025f8282546103169190610aae565b925050819055506103f0565b5f5f5f8573ffffffffffffffffffffffffffffffffffffffff1673ffffffffffffffffffffffffffffffffffffffff1681526020019081526020015f20549050818110156103ab578381836040517fe450d38c0000000000000000000000000000000000000000000000000000000081526004016103a293929190610af0565b60405180910390fd5b8181035f5f8673ffffffffffffffffffffffffffffffffffffffff1673ffffffffffffffffffffffffffffffffffffffff1681526020019081526020015f2081905550505b5f73ffffffffffffffffffffffffffffffffffffffff168273ffffffffffffffffffffffffffffffffffffffff1603610437578060025f8282540392505081905550610481565b805f5f8473ffffffffffffffffffffffffffffffffffffffff1673ffffffffffffffffffffffffffffffffffffffff1681526020019081526020015f205f82825401925050819055505b8173ffffffffffffffffffffffffffffffffffffffff168373ffffffffffffffffffffffffffffffffffffffff167fddf252ad1be2c89b69c2b068fc378daa952ba7f163c4a11628f55a4df523b3ef836040516104de9190610b25565b60405180910390a3505050565b5f5ffd5b5f819050919050565b610501816104ef565b811461050b575f5ffd5b50565b5f8151905061051c816104f8565b92915050565b5f5f60408385031215610538576105376104eb565b5b5f6105458582860161050e565b92505060206105568582860161050e565b9150509250929050565b5f81519050919050565b7f4e487b71000000000000000000000000000000000000000000000000000000005f52604160045260245ffd5b7f4e487b71000000000000000000000000000000000000000000000000000000005f52602260045260245ffd5b5f60028204905060018216806105db57607f821691505b6020821081036105ee576105ed610597565b5b50919050565b5f819050815f5260205f209050919050565b5f6020601f8301049050919050565b5f82821b905092915050565b5f600883026106507fffffffffffffffffffffffffffffffffffffffffffffffffffffffffffffffff82610615565b61065a8683610615565b95508019841693508086168417925050509392505050565b5f819050919050565b5f61069561069061068b846104ef565b610672565b6104ef565b9050919050565b5f819050919050565b6106ae8361067b565b6106c26106ba8261069c565b848454610621565b825550505050565b5f5f905090565b6106d96106ca565b6106e48184846106a5565b505050565b5b81811015610707576106fc5f826106d1565b6001810190506106ea565b5050565b601f82111561074c5761071d816105f4565b61072684610606565b81016020851015610735578190505b61074961074185610606565b8301826106e9565b50505b505050565b5f82821c905092915050565b5f61076c5f1984600802610751565b1980831691505092915050565b5f610784838361075d565b9150826002028217905092915050565b61079d82610560565b67ffffffffffffffff8111156107b6576107b561056a565b5b6107c082546105c4565b6107cb82828561070b565b5f60209050601f8311600181146107fc575f84156107ea578287015190505b6107f48582610779565b86555061085b565b601f19841661080a866105f4565b5f5b828110156108315784890151825560018201915060208501945060208101905061080c565b8683101561084e578489015161084a601f89168261075d565b8355505b6001600288020188555050505b505050505050565b5f73ffffffffffffffffffffffffffffffffffffffff82169050919050565b5f61088c82610863565b9050919050565b61089c81610882565b82525050565b5f6020820190506108b55f830184610893565b92915050565b7f4e487b71000000000000000000000000000000000000000000000000000000005f52601160045260245ffd5b5f8160011c9050919050565b5f5f8291508390505b600185111561093d57808604811115610919576109186108bb565b5b60018516156109285780820291505b8081029050610936856108e8565b94506108fd565b94509492505050565b5f826109555760019050610a10565b81610962575f9050610a10565b81600181146109785760028114610982576109b1565b6001915050610a10565b60ff841115610994576109936108bb565b5b8360020a9150848211156109ab576109aa6108bb565b5b50610a10565b5060208310610133831016604e8410600b84101617156109e65782820a9050838111156109e1576109e06108bb565b5b610a10565b6109f384848460016108f4565b92509050818404811115610a0a57610a096108bb565b5b81810290505b9392505050565b5f60ff82169050919050565b5f610a2d826104ef565b9150610a3883610a17565b9250610a657fffffffffffffffffffffffffffffffffffffffffffffffffffffffffffffffff8484610946565b905092915050565b5f610a77826104ef565b9150610a82836104ef565b9250828202610a90816104ef565b91508282048414831517610aa757610aa66108bb565b5b5092915050565b5f610ab8826104ef565b9150610ac3836104ef565b9250828201905080821115610adb57610ada6108bb565b5b92915050565b610aea816104ef565b82525050565b5f606082019050610b035f830186610893565b610b106020830185610ae1565b610b1d6040830184610ae1565b949350505050565b5f602082019050610b385f830184610ae1565b92915050565b611a3880610b4b5f395ff3fe60806040526004361061010c575f3560e01c806370a082311161009457806395d89b411161006357806395d89b4114610337578063a9059cbb14610361578063db870bc81461039d578063dd62ed3e146103c5578063f2fde38b1461040157610113565b806370a0823114610291578063715018a6146102cd5780637ff9b596146102e35780638da5cb5b1461030d57610113565b806323b872dd116100db57806323b872dd146101d1578063313ce5671461020d57806340c10f191461023757806347f754e61461025f5780636a61e5fc1461026957610113565b806306fdde0314610117578063095ea7b3146101415780630be4b96b1461017d57806318160ddd146101a757610113565b3661011357005b5f5ffd5b348015610122575f5ffd5b5061012b610429565b6040516101389190611240565b60405180910390f35b34801561014c575f5ffd5b50610167600480360381019061016291906112f1565b6104b9565b6040516101749190611349565b60405180910390f35b348015610188575f5ffd5b506101916104db565b60405161019e9190611371565b60405180910390f35b3480156101b2575f5ffd5b506101bb6104e2565b6040516101c89190611371565b60405180910390f35b3480156101dc575f5ffd5b506101f760048036038101906101f2919061138a565b6104eb565b6040516102049190611349565b60405180910390f35b348015610218575f5ffd5b50610221610519565b60405161022e91906113f5565b60405180910390f35b348015610242575f5ffd5b5061025d600480360381019061025891906112f1565b610521565b005b610267610537565b005b348015610274575f5ffd5b5061028f600480360381019061028a919061140e565b610651565b005b34801561029c575f5ffd5b506102b760048036038101906102b29190611439565b6106a3565b6040516102c49190611371565b60405180910390f35b3480156102d8575f5ffd5b506102e16106e8565b005b3480156102ee575f5ffd5b506102f76106fb565b6040516103049190611371565b60405180910390f35b348015610318575f5ffd5b50610321610701565b60405161032e9190611473565b60405180910390f35b348015610342575f5ffd5b5061034b610729565b6040516103589190611240565b60405180910390f35b34801561036c575f5ffd5b50610387600480360381019061038291906112f1565b6107b9565b6040516103949190611349565b60405180910390f35b3480156103a8575f5ffd5b506103c360048036038101906103be919061140e565b6107db565b005b3480156103d0575f5ffd5b506103eb60048036038101906103e6919061148c565b61097d565b6040516103f89190611371565b60405180910390f35b34801561040c575f5ffd5b5061042760048036038101906104229190611439565b6109ff565b005b606060038054610438906114f7565b80601f0160208091040260200160405190810160405280929190818152602001828054610464906114f7565b80156104af5780601f10610486576101008083540402835291602001916104af565b820191905f5260205f20905b81548152906001019060200180831161049257829003601f168201915b5050505050905090565b5f5f6104c3610a83565b90506104d0818585610a8a565b600191505092915050565b5f47905090565b5f600254905090565b5f5f6104f5610a83565b9050610502858285610a9c565b61050d858585610b2f565b60019150509392505050565b5f6012905090565b610529610c1f565b6105338282610ca6565b5050565b5f3411610579576040517f08c379a000000000000000000000000000000000000000000000000000000000815260040161057090611571565b60405180910390fd5b5f600654610585610519565b600a61059191906116eb565b3461059c9190611735565b6105a691906117a3565b9050806105b2306106a3565b10156105f3576040517f08c379a00000000000000000000000000000000000000000000000000000000081526004016105ea9061181d565b60405180910390fd5b6105fe303383610b2f565b3373ffffffffffffffffffffffffffffffffffffffff167f7a4303d5611099cc3f24ddb2d59a8f293d6b74c6a5e32b9445aef56000c9f929348360405161064692919061183b565b60405180910390a250565b610659610c1f565b5f6006549050816006819055507f945c1c4e99aa89f648fbfe3df471b916f719e16d960fcec0737d4d56bd696838818360405161069792919061183b565b60405180910390a15050565b5f5f5f8373ffffffffffffffffffffffffffffffffffffffff1673ffffffffffffffffffffffffffffffffffffffff1681526020019081526020015f20549050919050565b6106f0610c1f565b6106f95f610d25565b565b60065481565b5f60055f9054906101000a900473ffffffffffffffffffffffffffffffffffffffff16905090565b606060048054610738906114f7565b80601f0160208091040260200160405190810160405280929190818152602001828054610764906114f7565b80156107af5780601f10610786576101008083540402835291602001916107af565b820191905f5260205f20905b81548152906001019060200180831161079257829003601f168201915b5050505050905090565b5f5f6107c3610a83565b90506107d0818585610b2f565b600191505092915050565b5f811161081d576040517f08c379a0000000000000000000000000000000000000000000000000000000008152600401610814906118ac565b60405180910390fd5b80610827336106a3565b1015610868576040517f08c379a000000000000000000000000000000000000000000000000000000000815260040161085f90611914565b60405180910390fd5b5f610871610519565b600a61087d91906116eb565b6006548361088b9190611735565b61089591906117a3565b9050804710156108da576040517f08c379a00000000000000000000000000000000000000000000000000000000081526004016108d19061197c565b60405180910390fd5b6108e5333084610b2f565b3373ffffffffffffffffffffffffffffffffffffffff166108fc8290811502906040515f60405180830381858888f19350505050158015610928573d5f5f3e3d5ffd5b503373ffffffffffffffffffffffffffffffffffffffff167f2c6af6f30ec70c77ecc7642bdc791a967a24c7d94a602366f70b7cf2decfb3ab838360405161097192919061183b565b60405180910390a25050565b5f60015f8473ffffffffffffffffffffffffffffffffffffffff1673ffffffffffffffffffffffffffffffffffffffff1681526020019081526020015f205f8373ffffffffffffffffffffffffffffffffffffffff1673ffffffffffffffffffffffffffffffffffffffff1681526020019081526020015f2054905092915050565b610a07610c1f565b5f73ffffffffffffffffffffffffffffffffffffffff168173ffffffffffffffffffffffffffffffffffffffff1603610a77575f6040517f1e4fbdf7000000000000000000000000000000000000000000000000000000008152600401610a6e9190611473565b60405180910390fd5b610a8081610d25565b50565b5f33905090565b610a978383836001610de8565b505050565b5f610aa7848461097d565b90507fffffffffffffffffffffffffffffffffffffffffffffffffffffffffffffffff811015610b295781811015610b1a578281836040517ffb8f41b2000000000000000000000000000000000000000000000000000000008152600401610b119392919061199a565b60405180910390fd5b610b2884848484035f610de8565b5b50505050565b5f73ffffffffffffffffffffffffffffffffffffffff168373ffffffffffffffffffffffffffffffffffffffff1603610b9f575f6040517f96c6fd1e000000000000000000000000000000000000000000000000000000008152600401610b969190611473565b60405180910390fd5b5f73ffffffffffffffffffffffffffffffffffffffff168273ffffffffffffffffffffffffffffffffffffffff1603610c0f575f6040517fec442f05000000000000000000000000000000000000000000000000000000008152600401610c069190611473565b60405180910390fd5b610c1a838383610fb7565b505050565b610c27610a83565b73ffffffffffffffffffffffffffffffffffffffff16610c45610701565b73ffffffffffffffffffffffffffffffffffffffff1614610ca457610c68610a83565b6040517f118cdaa7000000000000000000000000000000000000000000000000000000008152600401610c9b9190611473565b60405180910390fd5b565b5f73ffffffffffffffffffffffffffffffffffffffff168273ffffffffffffffffffffffffffffffffffffffff1603610d16575f6040517fec442f05000000000000000000000000000000000000000000000000000000008152600401610d0d9190611473565b60405180910390fd5b610d215f8383610fb7565b5050565b5f60055f9054906101000a900473ffffffffffffffffffffffffffffffffffffffff1690508160055f6101000a81548173ffffffffffffffffffffffffffffffffffffffff021916908373ffffffffffffffffffffffffffffffffffffffff1602179055508173ffffffffffffffffffffffffffffffffffffffff168173ffffffffffffffffffffffffffffffffffffffff167f8be0079c531659141344cd1fd0a4f28419497f9722a3daafe3b4186f6b6457e060405160405180910390a35050565b5f73ffffffffffffffffffffffffffffffffffffffff168473ffffffffffffffffffffffffffffffffffffffff1603610e58575f6040517fe602df05000000000000000000000000000000000000000000000000000000008152600401610e4f9190611473565b60405180910390fd5b5f73ffffffffffffffffffffffffffffffffffffffff168373ffffffffffffffffffffffffffffffffffffffff1603610ec8575f6040517f94280d62000000000000000000000000000000000000000000000000000000008152600401610ebf9190611473565b60405180910390fd5b8160015f8673ffffffffffffffffffffffffffffffffffffffff1673ffffffffffffffffffffffffffffffffffffffff1681526020019081526020015f205f8573ffffffffffffffffffffffffffffffffffffffff1673ffffffffffffffffffffffffffffffffffffffff1681526020019081526020015f20819055508015610fb1578273ffffffffffffffffffffffffffffffffffffffff168473ffffffffffffffffffffffffffffffffffffffff167f8c5be1e5ebec7d5bd14f71427d1e84f3dd0314c0f7b2291e5b200ac8c7c3b92584604051610fa89190611371565b60405180910390a35b50505050565b5f73ffffffffffffffffffffffffffffffffffffffff168373ffffffffffffffffffffffffffffffffffffffff1603611007578060025f828254610ffb91906119cf565b925050819055506110d5565b5f5f5f8573ffffffffffffffffffffffffffffffffffffffff1673ffffffffffffffffffffffffffffffffffffffff1681526020019081526020015f2054905081811015611090578381836040517fe450d38c0000000000000000000000000000000000000000000000000000000081526004016110879392919061199a565b60405180910390fd5b8181035f5f8673ffffffffffffffffffffffffffffffffffffffff1673ffffffffffffffffffffffffffffffffffffffff1681526020019081526020015f2081905550505b5f73ffffffffffffffffffffffffffffffffffffffff168273ffffffffffffffffffffffffffffffffffffffff160361111c578060025f8282540392505081905550611166565b805f5f8473ffffffffffffffffffffffffffffffffffffffff1673ffffffffffffffffffffffffffffffffffffffff1681526020019081526020015f205f82825401925050819055505b8173ffffffffffffffffffffffffffffffffffffffff168373ffffffffffffffffffffffffffffffffffffffff167fddf252ad1be2c89b69c2b068fc378daa952ba7f163c4a11628f55a4df523b3ef836040516111c39190611371565b60405180910390a3505050565b5f81519050919050565b5f82825260208201905092915050565b8281835e5f83830152505050565b5f601f19601f8301169050919050565b5f611212826111d0565b61121c81856111da565b935061122c8185602086016111ea565b611235816111f8565b840191505092915050565b5f6020820190508181035f8301526112588184611208565b905092915050565b5f5ffd5b5f73ffffffffffffffffffffffffffffffffffffffff82169050919050565b5f61128d82611264565b9050919050565b61129d81611283565b81146112a7575f5ffd5b50565b5f813590506112b881611294565b92915050565b5f819050919050565b6112d0816112be565b81146112da575f5ffd5b50565b5f813590506112eb816112c7565b92915050565b5f5f6040838503121561130757611306611260565b5b5f611314858286016112aa565b9250506020611325858286016112dd565b9150509250929050565b5f8115159050919050565b6113438161132f565b82525050565b5f60208201905061135c5f83018461133a565b92915050565b61136b816112be565b82525050565b5f6020820190506113845f830184611362565b92915050565b5f5f5f606084860312156113a1576113a0611260565b5b5f6113ae868287016112aa565b93505060206113bf868287016112aa565b92505060406113d0868287016112dd565b9150509250925092565b5f60ff82169050919050565b6113ef816113da565b82525050565b5f6020820190506114085f8301846113e6565b92915050565b5f6020828403121561142357611422611260565b5b5f611430848285016112dd565b91505092915050565b5f6020828403121561144e5761144d611260565b5b5f61145b848285016112aa565b91505092915050565b61146d81611283565b82525050565b5f6020820190506114865f830184611464565b92915050565b5f5f604083850312156114a2576114a1611260565b5b5f6114af858286016112aa565b92505060206114c0858286016112aa565b9150509250929050565b7f4e487b71000000000000000000000000000000000000000000000000000000005f52602260045260245ffd5b5f600282049050600182168061150e57607f821691505b602082108103611521576115206114ca565b5b50919050565b7f53656e64204554480000000000000000000000000000000000000000000000005f82015250565b5f61155b6008836111da565b915061156682611527565b602082019050919050565b5f6020820190508181035f8301526115888161154f565b9050919050565b7f4e487b71000000000000000000000000000000000000000000000000000000005f52601160045260245ffd5b5f8160011c9050919050565b5f5f8291508390505b6001851115611611578086048111156115ed576115ec61158f565b5b60018516156115fc5780820291505b808102905061160a856115bc565b94506115d1565b94509492505050565b5f8261162957600190506116e4565b81611636575f90506116e4565b816001811461164c576002811461165657611685565b60019150506116e4565b60ff8411156116685761166761158f565b5b8360020a91508482111561167f5761167e61158f565b5b506116e4565b5060208310610133831016604e8410600b84101617156116ba5782820a9050838111156116b5576116b461158f565b5b6116e4565b6116c784848460016115c8565b925090508184048111156116de576116dd61158f565b5b81810290505b9392505050565b5f6116f5826112be565b9150611700836113da565b925061172d7fffffffffffffffffffffffffffffffffffffffffffffffffffffffffffffffff848461161a565b905092915050565b5f61173f826112be565b915061174a836112be565b9250828202611758816112be565b9150828204841483151761176f5761176e61158f565b5b5092915050565b7f4e487b71000000000000000000000000000000000000000000000000000000005f52601260045260245ffd5b5f6117ad826112be565b91506117b8836112be565b9250826117c8576117c7611776565b5b828204905092915050565b7f496e73756666696369656e74206c6971756964697479000000000000000000005f82015250565b5f6118076016836111da565b9150611812826117d3565b602082019050919050565b5f6020820190508181035f830152611834816117fb565b9050919050565b5f60408201905061184e5f830185611362565b61185b6020830184611362565b9392505050565b7f496e76616c696420616d6f756e740000000000000000000000000000000000005f82015250565b5f611896600e836111da565b91506118a182611862565b602082019050919050565b5f6020820190508181035f8301526118c38161188a565b9050919050565b7f4e6f7420656e6f756768204445580000000000000000000000000000000000005f82015250565b5f6118fe600e836111da565b9150611909826118ca565b602082019050919050565b5f6020820190508181035f83015261192b816118f2565b9050919050565b7f4e6f7420656e6f756768204554482072657365727665000000000000000000005f82015250565b5f6119666016836111da565b915061197182611932565b602082019050919050565b5f6020820190508181035f8301526119938161195a565b9050919050565b5f6060820190506119ad5f830186611464565b6119ba6020830185611362565b6119c76040830184611362565b949350505050565b5f6119d9826112be565b91506119e4836112be565b92508282019050808211156119fc576119fb61158f565b5b9291505056fea2646970667358221220854587572d9bac8856a80a432a4a1f0d7558918c3c48dabc25ebd6dd1637405164736f6c634300081c0033",
  "linkReferences": {},
  "deployedLinkReferences": {},
  "immutableReferences": {},
  "inputSourceName": "project/contracts/DEXToken.sol",
  "buildInfoId": "solc-0_8_28-1ea02298c4f29c3d96ab80f2e68a8c196de8d6bb"
}