{
  "_format": "hh3-artifact-1",
  "contractName": "PawNFT",
  "sourceName": "contracts/PawNFT.sol",
  "abi": [
    {
      "inputs": [],
      "stateMutability": "nonpayable",
      "type": "constructor"
    },
    {
      "inputs": [
        {
          "internalType": "address",
          "name": "sender",
          "type": "address"
        },
        {
          "internalType": "uint256",
          "name": "tokenId",
          "type": "uint256"
        },
        {
          "internalType": "address",
          "name": "owner",
          "type": "address"
        }
      ],
      "name": "ERC721IncorrectOwner",
      "type": "error"
    },
    {
      "inputs": [
        {
          "internalType": "address",
          "name": "operator",
          "type": "address"
        },
        {
          "internalType": "uint256",
          "name": "tokenId",
          "type": "uint256"
        }
      ],
      "name": "ERC721InsufficientApproval",
      "type": "error"
    },
    {
      "inputs": [
        {
          "internalType": "address",
          "name": "approver",
          "type": "address"
        }
      ],
      "name": "ERC721InvalidApprover",
      "type": "error"
    },
    {
      "inputs": [
        {
          "internalType": "address",
          "name": "operator",
          "type": "address"
        }
      ],
      "name": "ERC721InvalidOperator",
      "type": "error"
    },
    {
      "inputs": [
        {
          "internalType": "address",
          "name": "owner",
          "type": "address"
        }
      ],
      "name": "ERC721InvalidOwner",
      "type": "error"
    },
    {
      "inputs": [
        {
          "internalType": "address",
          "name": "receiver",
          "type": "address"
        }
      ],
      "name": "ERC721InvalidReceiver",
      "type": "error"
    },
    {
      "inputs": [
        {
          "internalType": "address",
          "name": "sender",
          "type": "address"
        }
      ],
      "name": "ERC721InvalidSender",
      "type": "error"
    },
    {
      "inputs": [
        {
          "internalType": "uint256",
          "name": "tokenId",
          "type": "uint256"
        }
      ],
      "name": "ERC721NonexistentToken",
      "type": "error"
    },
    {
      "inputs": [
        {
          "internalType": "address",
          "name": "owner",
          "type": "address"
        }
      ],
      "name": "OwnableInvalidOwner",
      "type": "error"
    },
    {
      "inputs": [
        {
          "internalType": "address",
          "name": "account",
          "type": "address"
        }
      ],
      "name": "OwnableUnauthorizedAccount",
      "type": "error"
    },
    {
      "anonymous": false,
      "inputs": [
        {
          "indexed": true,
          "internalType": "address",
          "name": "owner",
          "type": "address"
        },
        {
          "indexed": true,
          "internalType": "address",
          "name": "approved",
          "type": "address"
        },
        {
          "indexed": true,
          "internalType": "uint256",
          "name": "tokenId",
          "type": "uint256"
        }
      ],
      "name": "Approval",
      "type": "event"
    },
    {
      "anonymous": false,
      "inputs": [
        {
          "indexed": true,
          "internalType": "address",
          "name": "owner",
          "type": "address"
        },
        {
          "indexed": true,
          "internalType": "address",
          "name": "operator",
          "type": "address"
        },
        {
          "indexed": false,
          "internalType": "bool",
          "name": "approved",
          "type": "bool"
        }
      ],
      "name": "ApprovalForAll",
      "type": "event"
    },
    {
      "anonymous": false,
      "inputs": [
        {
          "indexed": false,
          "internalType": "uint256",
          "name": "tokenId",
          "type": "uint256"
        }
      ],
      "name": "NFTBurned",
      "type": "event"
    },
    {
      "anonymous": false,
      "inputs": [
        {
          "indexed": true,
          "internalType": "address",
          "name": "owner",
          "type": "address"
        },
        {
          "indexed": false,
          "internalType": "uint256",
          "name": "tokenId",
          "type": "uint256"
        },
        {
          "indexed": false,
          "internalType": "string",
          "name": "metadata",
          "type": "string"
        }
      ],
      "name": "NFTMinted",
      "type": "event"
    },
    {
      "anonymous": false,
      "inputs": [
        {
          "indexed": true,
          "internalType": "address",
          "name": "previousOwner",
          "type": "address"
        },
        {
          "indexed": true,
          "internalType": "address",
          "name": "newOwner",
          "type": "address"
        }
      ],
      "name": "OwnershipTransferred",
      "type": "event"
    },
    {
      "anonymous": false,
      "inputs": [
        {
          "indexed": true,
          "internalType": "address",
          "name": "from",
          "type": "address"
        },
        {
          "indexed": true,
          "internalType": "address",
          "name": "to",
          "type": "address"
        },
        {
          "indexed": true,
          "internalType": "uint256",
          "name": "tokenId",
          "type": "uint256"
        }
      ],
      "name": "Transfer",
      "type": "event"
    },
    {
      "inputs": [
        {
          "internalType": "address",
          "name": "to",
          "type": "address"
        },
        {
          "internalType": "uint256",
          "name": "tokenId",
          "type": "uint256"
        }
      ],
      "name": "approve",
      "outputs": [],
      "stateMutability": "nonpayable",
      "type": "function"
    },
    {
      "inputs": [
        {
          "internalType": "address",
          "name": "owner",
          "type": "address"
        }
      ],
      "name": "balanceOf",
      "outputs": [
        {
          "internalType": "uint256",
          "name": "",
          "type": "uint256"
        }
      ],
      "stateMutability": "view",
      "type": "function"
    },
    {
      "inputs": [
        {
          "internalType": "uint256",
          "name": "tokenId",
          "type": "uint256"
        }
      ],
      "name": "burn",
      "outputs": [],
      "stateMutability": "nonpayable",
      "type": "function"
    },
    {
      "inputs": [
        {
          "internalType": "uint256",
          "name": "tokenId",
          "type": "uint256"
        }
      ],
      "name": "getApproved",
      "outputs": [
        {
          "internalType": "address",
          "name": "",
          "type": "address"
        }
      ],
      "stateMutability": "view",
      "type": "function"
    },
    {
      "inputs": [],
      "name": "getNextTokenId",
      "outputs": [
        {
          "internalType": "uint256",
          "name": "",
          "type": "uint256"
        }
      ],
      "stateMutability": "view",
      "type": "function"
    },
    {
      "inputs": [
        {
          "internalType": "address",
          "name": "owner",
          "type": "address"
        },
        {
          "internalType": "address",
          "name": "operator",
          "type": "address"
        }
      ],
      "name": "isApprovedForAll",
      "outputs": [
        {
          "internalType": "bool",
          "name": "",
          "type": "bool"
        }
      ],
      "stateMutability": "view",
      "type": "function"
    },
    {
      "inputs": [
        {
          "internalType": "string",
          "name": "metadataURI",
          "type": "string"
        }
      ],
      "name": "mint",
      "outputs": [],
      "stateMutability": "nonpayable",
      "type": "function"
    },
    {
      "inputs": [],
      "name": "name",
      "outputs": [
        {
          "internalType": "string",
          "name": "",
          "type": "string"
        }
      ],
      "stateMutability": "view",
      "type": "function"
    },
    {
      "inputs": [],
      "name": "owner",
      "outputs": [
        {
          "internalType": "address",
          "name": "",
          "type": "address"
        }
      ],
      "stateMutability": "view",
      "type": "function"
    },
    {
      "inputs": [
        {
          "internalType": "uint256",
          "name": "tokenId",
          "type": "uint256"
        }
      ],
      "name": "ownerOf",
      "outputs": [
        {
          "internalType": "address",
          "name": "",
          "type": "address"
        }
      ],
      "stateMutability": "view",
      "type": "function"
    },
    {
      "inputs": [],
      "name": "renounceOwnership",
      "outputs": [],
      "stateMutability": "nonpayable",
      "type": "function"
    },
    {
      "inputs": [
        {
          "internalType": "address",
          "name": "from",
          "type": "address"
        },
        {
          "internalType": "address",
          "name": "to",
          "type": "address"
        },
        {
          "internalType": "uint256",
          "name": "tokenId",
          "type": "uint256"
        }
      ],
      "name": "safeTransferFrom",
      "outputs": [],
      "stateMutability": "nonpayable",
      "type": "function"
    },
    {
      "inputs": [
        {
          "internalType": "address",
          "name": "from",
          "type": "address"
        },
        {
          "internalType": "address",
          "name": "to",
          "type": "address"
        },
        {
          "internalType": "uint256",
          "name": "tokenId",
          "type": "uint256"
        },
        {
          "internalType": "bytes",
          "name": "data",
          "type": "bytes"
        }
      ],
      "name": "safeTransferFrom",
      "outputs": [],
      "stateMutability": "nonpayable",
      "type": "function"
    },
    {
      "inputs": [
        {
          "internalType": "address",
          "name": "operator",
          "type": "address"
        },
        {
          "internalType": "bool",
          "name": "approved",
          "type": "bool"
        }
      ],
      "name": "setApprovalForAll",
      "outputs": [],
      "stateMutability": "nonpayable",
      "type": "function"
    },
    {
      "inputs": [
        {
          "internalType": "bytes4",
          "name": "interfaceId",
          "type": "bytes4"
        }
      ],
      "name": "supportsInterface",
      "outputs": [
        {
          "internalType": "bool",
          "name": "",
          "type": "bool"
        }
      ],
      "stateMutability": "view",
      "type": "function"
    },
    {
      "inputs": [],
      "name": "symbol",
      "outputs": [
        {
          "internalType": "string",
          "name": "",
          "type": "string"
        }
      ],
      "stateMutability": "view",
      "type": "function"
    },
    {
      "inputs": [
        {
          "internalType": "uint256",
          "name": "tokenId",
          "type": "uint256"
        }
      ],
      "name": "tokenURI",
      "outputs": [
        {
          "internalType": "string",
          "name": "",
          "type": "string"
        }
      ],
      "stateMutability": "view",
      "type": "function"
    },
    {
      "inputs": [
        {
          "internalType": "address",
          "name": "from",
          "type": "address"
        },
        {
          "internalType": "address",
          "name": "to",
          "type": "address"
        },
        {
          "internalType": "uint256",
          "name": "tokenId",
          "type": "uint256"
        }
      ],
      "name": "transferFrom",
      "outputs": [],
      "stateMutability": "nonpayable",
      "type": "function"
    },
    {
      "inputs": [
        {
          "internalType": "address",
          "name": "newOwner",
          "type": "address"
        }
      ],
      "name": "transferOwnership",
      "outputs": [],
      "stateMutability": "nonpayable",
      "type": "function"
    }
  ],
  "bytecode": "0x608060405234801561000f575f5ffd5b50336040518060400160405280600881526020017f5061776e204e46540000000000000000000000000000000000000000000000008152506040518060400160405280600481526020017f5041574e00000000000000000000000000000000000000000000000000000000815250815f908161008b9190610423565b50806001908161009b9190610423565b5050505f73ffffffffffffffffffffffffffffffffffffffff168173ffffffffffffffffffffffffffffffffffffffff160361010e575f6040517f1e4fbdf70000000000000000000000000000000000000000000000000000000081526004016101059190610531565b60405180910390fd5b61011d8161012360201b60201c565b5061054a565b5f60065f9054906101000a900473ffffffffffffffffffffffffffffffffffffffff1690508160065f6101000a81548173ffffffffffffffffffffffffffffffffffffffff021916908373ffffffffffffffffffffffffffffffffffffffff1602179055508173ffffffffffffffffffffffffffffffffffffffff168173ffffffffffffffffffffffffffffffffffffffff167f8be0079c531659141344cd1fd0a4f28419497f9722a3daafe3b4186f6b6457e060405160405180910390a35050565b5f81519050919050565b7f4e487b71000000000000000000000000000000000000000000000000000000005f52604160045260245ffd5b7f4e487b71000000000000000000000000000000000000000000000000000000005f52602260045260245ffd5b5f600282049050600182168061026157607f821691505b6020821081036102745761027361021d565b5b50919050565b5f819050815f5260205f209050919050565b5f6020601f8301049050919050565b5f82821b905092915050565b5f600883026102d67fffffffffffffffffffffffffffffffffffffffffffffffffffffffffffffffff8261029b565b6102e0868361029b565b95508019841693508086168417925050509392505050565b5f819050919050565b5f819050919050565b5f61032461031f61031a846102f8565b610301565b6102f8565b9050919050565b5f819050919050565b61033d8361030a565b6103516103498261032b565b8484546102a7565b825550505050565b5f5f905090565b610368610359565b610373818484610334565b505050565b5b818110156103965761038b5f82610360565b600181019050610379565b5050565b601f8211156103db576103ac8161027a565b6103b58461028c565b810160208510156103c4578190505b6103d86103d08561028c565b830182610378565b50505b505050565b5f82821c905092915050565b5f6103fb5f19846008026103e0565b1980831691505092915050565b5f61041383836103ec565b9150826002028217905092915050565b61042c826101e6565b67ffffffffffffffff811115610445576104446101f0565b5b61044f825461024a565b61045a82828561039a565b5f60209050601f83116001811461048b575f8415610479578287015190505b6104838582610408565b8655506104ea565b601f1984166104998661027a565b5f5b828110156104c05784890151825560018201915060208501945060208101905061049b565b868310156104dd57848901516104d9601f8916826103ec565b8355505b6001600288020188555050505b505050505050565b5f73ffffffffffffffffffffffffffffffffffffffff82169050919050565b5f61051b826104f2565b9050919050565b61052b81610511565b82525050565b5f6020820190506105445f830184610522565b92915050565b61256c806105575f395ff3fe608060405234801561000f575f5ffd5b506004361061011f575f3560e01c8063715018a6116100ab578063c87b56dd1161006f578063c87b56dd146102ef578063caa0f92a1461031f578063d85d3d271461033d578063e985e9c514610359578063f2fde38b146103895761011f565b8063715018a6146102715780638da5cb5b1461027b57806395d89b4114610299578063a22cb465146102b7578063b88d4fde146102d35761011f565b806323b872dd116100f257806323b872dd146101bd57806342842e0e146101d957806342966c68146101f55780636352211e1461021157806370a08231146102415761011f565b806301ffc9a71461012357806306fdde0314610153578063081812fc14610171578063095ea7b3146101a1575b5f5ffd5b61013d600480360381019061013891906119db565b6103a5565b60405161014a9190611a20565b60405180910390f35b61015b610486565b6040516101689190611aa9565b60405180910390f35b61018b60048036038101906101869190611afc565b610515565b6040516101989190611b66565b60405180910390f35b6101bb60048036038101906101b69190611ba9565b610530565b005b6101d760048036038101906101d29190611be7565b610546565b005b6101f360048036038101906101ee9190611be7565b610645565b005b61020f600480360381019061020a9190611afc565b610664565b005b61022b60048036038101906102269190611afc565b610739565b6040516102389190611b66565b60405180910390f35b61025b60048036038101906102569190611c37565b61074a565b6040516102689190611c71565b60405180910390f35b610279610800565b005b610283610813565b6040516102909190611b66565b60405180910390f35b6102a161083b565b6040516102ae9190611aa9565b60405180910390f35b6102d160048036038101906102cc9190611cb4565b6108cb565b005b6102ed60048036038101906102e89190611e1e565b6108e1565b005b61030960048036038101906103049190611afc565b610906565b6040516103169190611aa9565b60405180910390f35b610327610a1d565b6040516103349190611c71565b60405180910390f35b61035760048036038101906103529190611f3c565b610a26565b005b610373600480360381019061036e9190611f83565b610ac0565b6040516103809190611a20565b60405180910390f35b6103a3600480360381019061039e9190611c37565b610b4e565b005b5f7f80ac58cd000000000000000000000000000000000000000000000000000000007bffffffffffffffffffffffffffffffffffffffffffffffffffffffff1916827bffffffffffffffffffffffffffffffffffffffffffffffffffffffff1916148061046f57507f5b5e139f000000000000000000000000000000000000000000000000000000007bffffffffffffffffffffffffffffffffffffffffffffffffffffffff1916827bffffffffffffffffffffffffffffffffffffffffffffffffffffffff1916145b8061047f575061047e82610bd2565b5b9050919050565b60605f805461049490611fee565b80601f01602080910402602001604051908101604052809291908181526020018280546104c090611fee565b801561050b5780601f106104e25761010080835404028352916020019161050b565b820191905f5260205f20905b8154815290600101906020018083116104ee57829003601f168201915b5050505050905090565b5f61051f82610c3b565b5061052982610cc1565b9050919050565b610542828261053d610cfa565b610d01565b5050565b5f73ffffffffffffffffffffffffffffffffffffffff168273ffffffffffffffffffffffffffffffffffffffff16036105b6575f6040517f64a0ae920000000000000000000000000000000000000000000000000000000081526004016105ad9190611b66565b60405180910390fd5b5f6105c983836105c4610cfa565b610d13565b90508373ffffffffffffffffffffffffffffffffffffffff168173ffffffffffffffffffffffffffffffffffffffff161461063f578382826040517f64283d7b0000000000000000000000000000000000000000000000000000000081526004016106369392919061201e565b60405180910390fd5b50505050565b61065f83838360405180602001604052805f8152506108e1565b505050565b3373ffffffffffffffffffffffffffffffffffffffff1661068482610739565b73ffffffffffffffffffffffffffffffffffffffff16146106da576040517f08c379a00000000000000000000000000000000000000000000000000000000081526004016106d19061209d565b60405180910390fd5b6106e381610f1e565b60085f8281526020019081526020015f205f6106ff919061191d565b7f3c176691ca154a2f6fe978a2a633a33ee77dbe2902e67a75400720845a4b2ce18160405161072e9190611c71565b60405180910390a150565b5f61074382610c3b565b9050919050565b5f5f73ffffffffffffffffffffffffffffffffffffffff168273ffffffffffffffffffffffffffffffffffffffff16036107bb575f6040517f89c62b640000000000000000000000000000000000000000000000000000000081526004016107b29190611b66565b60405180910390fd5b60035f8373ffffffffffffffffffffffffffffffffffffffff1673ffffffffffffffffffffffffffffffffffffffff1681526020019081526020015f20549050919050565b610808610fa0565b6108115f611027565b565b5f60065f9054906101000a900473ffffffffffffffffffffffffffffffffffffffff16905090565b60606001805461084a90611fee565b80601f016020809104026020016040519081016040528092919081815260200182805461087690611fee565b80156108c15780601f10610898576101008083540402835291602001916108c1565b820191905f5260205f20905b8154815290600101906020018083116108a457829003601f168201915b5050505050905090565b6108dd6108d6610cfa565b83836110ea565b5050565b6108ec848484610546565b6109006108f7610cfa565b858585856112c3565b50505050565b60605f73ffffffffffffffffffffffffffffffffffffffff1661092883610739565b73ffffffffffffffffffffffffffffffffffffffff160361097e576040517f08c379a000000000000000000000000000000000000000000000000000000000815260040161097590612105565b60405180910390fd5b60085f8381526020019081526020015f20805461099a90611fee565b80601f01602080910402602001604051908101604052809291908181526020018280546109c690611fee565b8015610a115780601f106109e857610100808354040283529160200191610a11565b820191905f5260205f20905b8154815290600101906020018083116109f457829003601f168201915b50505050509050919050565b5f600754905090565b5f600754905060075f815480929190610a3e90612150565b9190505550610a4d338261146f565b8160085f8381526020019081526020015f209081610a6b9190612337565b503373ffffffffffffffffffffffffffffffffffffffff167fd35bb95e09c04b219e35047ce7b7b300e3384264ef84a40456943dbc0fc17c148284604051610ab4929190612406565b60405180910390a25050565b5f60055f8473ffffffffffffffffffffffffffffffffffffffff1673ffffffffffffffffffffffffffffffffffffffff1681526020019081526020015f205f8373ffffffffffffffffffffffffffffffffffffffff1673ffffffffffffffffffffffffffffffffffffffff1681526020019081526020015f205f9054906101000a900460ff16905092915050565b610b56610fa0565b5f73ffffffffffffffffffffffffffffffffffffffff168173ffffffffffffffffffffffffffffffffffffffff1603610bc6575f6040517f1e4fbdf7000000000000000000000000000000000000000000000000000000008152600401610bbd9190611b66565b60405180910390fd5b610bcf81611027565b50565b5f7f01ffc9a7000000000000000000000000000000000000000000000000000000007bffffffffffffffffffffffffffffffffffffffffffffffffffffffff1916827bffffffffffffffffffffffffffffffffffffffffffffffffffffffff1916149050919050565b5f5f610c468361148c565b90505f73ffffffffffffffffffffffffffffffffffffffff168173ffffffffffffffffffffffffffffffffffffffff1603610cb857826040517f7e273289000000000000000000000000000000000000000000000000000000008152600401610caf9190611c71565b60405180910390fd5b80915050919050565b5f60045f8381526020019081526020015f205f9054906101000a900473ffffffffffffffffffffffffffffffffffffffff169050919050565b5f33905090565b610d0e83838360016114c5565b505050565b5f5f610d1e8461148c565b90505f73ffffffffffffffffffffffffffffffffffffffff168373ffffffffffffffffffffffffffffffffffffffff1614610d5f57610d5e818486611684565b5b5f73ffffffffffffffffffffffffffffffffffffffff168173ffffffffffffffffffffffffffffffffffffffff1614610dea57610d9e5f855f5f6114c5565b600160035f8373ffffffffffffffffffffffffffffffffffffffff1673ffffffffffffffffffffffffffffffffffffffff1681526020019081526020015f205f82825403925050819055505b5f73ffffffffffffffffffffffffffffffffffffffff168573ffffffffffffffffffffffffffffffffffffffff1614610e6957600160035f8773ffffffffffffffffffffffffffffffffffffffff1673ffffffffffffffffffffffffffffffffffffffff1681526020019081526020015f205f82825401925050819055505b8460025f8681526020019081526020015f205f6101000a81548173ffffffffffffffffffffffffffffffffffffffff021916908373ffffffffffffffffffffffffffffffffffffffff160217905550838573ffffffffffffffffffffffffffffffffffffffff168273ffffffffffffffffffffffffffffffffffffffff167fddf252ad1be2c89b69c2b068fc378daa952ba7f163c4a11628f55a4df523b3ef60405160405180910390a4809150509392505050565b5f610f2a5f835f610d13565b90505f73ffffffffffffffffffffffffffffffffffffffff168173ffffffffffffffffffffffffffffffffffffffff1603610f9c57816040517f7e273289000000000000000000000000000000000000000000000000000000008152600401610f939190611c71565b60405180910390fd5b5050565b610fa8610cfa565b73ffffffffffffffffffffffffffffffffffffffff16610fc6610813565b73ffffffffffffffffffffffffffffffffffffffff161461102557610fe9610cfa565b6040517f118cdaa700000000000000000000000000000000000000000000000000000000815260040161101c9190611b66565b60405180910390fd5b565b5f60065f9054906101000a900473ffffffffffffffffffffffffffffffffffffffff1690508160065f6101000a81548173ffffffffffffffffffffffffffffffffffffffff021916908373ffffffffffffffffffffffffffffffffffffffff1602179055508173ffffffffffffffffffffffffffffffffffffffff168173ffffffffffffffffffffffffffffffffffffffff167f8be0079c531659141344cd1fd0a4f28419497f9722a3daafe3b4186f6b6457e060405160405180910390a35050565b5f73ffffffffffffffffffffffffffffffffffffffff168373ffffffffffffffffffffffffffffffffffffffff160361115a575f6040517fa9fbf51f0000000000000000000000000000000000000000000000000000000081526004016111519190611b66565b60405180910390fd5b5f73ffffffffffffffffffffffffffffffffffffffff168273ffffffffffffffffffffffffffffffffffffffff16036111ca57816040517f5b08ba180000000000000000000000000000000000000000000000000000000081526004016111c19190611b66565b60405180910390fd5b8060055f8573ffffffffffffffffffffffffffffffffffffffff1673ffffffffffffffffffffffffffffffffffffffff1681526020019081526020015f205f8473ffffffffffffffffffffffffffffffffffffffff1673ffffffffffffffffffffffffffffffffffffffff1681526020019081526020015f205f6101000a81548160ff0219169083151502179055508173ffffffffffffffffffffffffffffffffffffffff168373ffffffffffffffffffffffffffffffffffffffff167f17307eab39ab6107e8899845ad3d59bd9653f200f220920489ca2b5937696c31836040516112b69190611a20565b60405180910390a3505050565b5f8373ffffffffffffffffffffffffffffffffffffffff163b1115611468578273ffffffffffffffffffffffffffffffffffffffff1663150b7a02868685856040518563ffffffff1660e01b81526004016113219493929190612486565b6020604051808303815f875af192505050801561135c57506040513d601f19601f8201168201806040525081019061135991906124e4565b60015b6113dd573d805f811461138a576040519150601f19603f3d011682016040523d82523d5f602084013e61138f565b606091505b505f8151036113d557836040517f64a0ae920000000000000000000000000000000000000000000000000000000081526004016113cc9190611b66565b60405180910390fd5b805160208201fd5b63150b7a0260e01b7bffffffffffffffffffffffffffffffffffffffffffffffffffffffff1916817bffffffffffffffffffffffffffffffffffffffffffffffffffffffff19161461146657836040517f64a0ae9200000000000000000000000000000000000000000000000000000000815260040161145d9190611b66565b60405180910390fd5b505b5050505050565b611488828260405180602001604052805f815250611747565b5050565b5f60025f8381526020019081526020015f205f9054906101000a900473ffffffffffffffffffffffffffffffffffffffff169050919050565b80806114fd57505f73ffffffffffffffffffffffffffffffffffffffff168273ffffffffffffffffffffffffffffffffffffffff1614155b1561162f575f61150c84610c3b565b90505f73ffffffffffffffffffffffffffffffffffffffff168373ffffffffffffffffffffffffffffffffffffffff161415801561157657508273ffffffffffffffffffffffffffffffffffffffff168173ffffffffffffffffffffffffffffffffffffffff1614155b801561158957506115878184610ac0565b155b156115cb57826040517fa9fbf51f0000000000000000000000000000000000000000000000000000000081526004016115c29190611b66565b60405180910390fd5b811561162d57838573ffffffffffffffffffffffffffffffffffffffff168273ffffffffffffffffffffffffffffffffffffffff167f8c5be1e5ebec7d5bd14f71427d1e84f3dd0314c0f7b2291e5b200ac8c7c3b92560405160405180910390a45b505b8360045f8581526020019081526020015f205f6101000a81548173ffffffffffffffffffffffffffffffffffffffff021916908373ffffffffffffffffffffffffffffffffffffffff16021790555050505050565b61168f83838361176a565b611742575f73ffffffffffffffffffffffffffffffffffffffff168373ffffffffffffffffffffffffffffffffffffffff160361170357806040517f7e2732890000000000000000000000000000000000000000000000000000000081526004016116fa9190611c71565b60405180910390fd5b81816040517f177e802f00000000000000000000000000000000000000000000000000000000815260040161173992919061250f565b60405180910390fd5b505050565b611751838361182a565b61176561175c610cfa565b5f8585856112c3565b505050565b5f5f73ffffffffffffffffffffffffffffffffffffffff168373ffffffffffffffffffffffffffffffffffffffff161415801561182157508273ffffffffffffffffffffffffffffffffffffffff168473ffffffffffffffffffffffffffffffffffffffff1614806117e257506117e18484610ac0565b5b8061182057508273ffffffffffffffffffffffffffffffffffffffff1661180883610cc1565b73ffffffffffffffffffffffffffffffffffffffff16145b5b90509392505050565b5f73ffffffffffffffffffffffffffffffffffffffff168273ffffffffffffffffffffffffffffffffffffffff160361189a575f6040517f64a0ae920000000000000000000000000000000000000000000000000000000081526004016118919190611b66565b60405180910390fd5b5f6118a683835f610d13565b90505f73ffffffffffffffffffffffffffffffffffffffff168173ffffffffffffffffffffffffffffffffffffffff1614611918575f6040517f73c6ac6e00000000000000000000000000000000000000000000000000000000815260040161190f9190611b66565b60405180910390fd5b505050565b50805461192990611fee565b5f825580601f1061193a5750611957565b601f0160209004905f5260205f2090810190611956919061195a565b5b50565b5b80821115611971575f815f90555060010161195b565b5090565b5f604051905090565b5f5ffd5b5f5ffd5b5f7fffffffff0000000000000000000000000000000000000000000000000000000082169050919050565b6119ba81611986565b81146119c4575f5ffd5b50565b5f813590506119d5816119b1565b92915050565b5f602082840312156119f0576119ef61197e565b5b5f6119fd848285016119c7565b91505092915050565b5f8115159050919050565b611a1a81611a06565b82525050565b5f602082019050611a335f830184611a11565b92915050565b5f81519050919050565b5f82825260208201905092915050565b8281835e5f83830152505050565b5f601f19601f8301169050919050565b5f611a7b82611a39565b611a858185611a43565b9350611a95818560208601611a53565b611a9e81611a61565b840191505092915050565b5f6020820190508181035f830152611ac18184611a71565b905092915050565b5f819050919050565b611adb81611ac9565b8114611ae5575f5ffd5b50565b5f81359050611af681611ad2565b92915050565b5f60208284031215611b1157611b1061197e565b5b5f611b1e84828501611ae8565b91505092915050565b5f73ffffffffffffffffffffffffffffffffffffffff82169050919050565b5f611b5082611b27565b9050919050565b611b6081611b46565b82525050565b5f602082019050611b795f830184611b57565b92915050565b611b8881611b46565b8114611b92575f5ffd5b50565b5f81359050611ba381611b7f565b92915050565b5f5f60408385031215611bbf57611bbe61197e565b5b5f611bcc85828601611b95565b9250506020611bdd85828601611ae8565b9150509250929050565b5f5f5f60608486031215611bfe57611bfd61197e565b5b5f611c0b86828701611b95565b9350506020611c1c86828701611b95565b9250506040611c2d86828701611ae8565b9150509250925092565b5f60208284031215611c4c57611c4b61197e565b5b5f611c5984828501611b95565b91505092915050565b611c6b81611ac9565b82525050565b5f602082019050611c845f830184611c62565b92915050565b611c9381611a06565b8114611c9d575f5ffd5b50565b5f81359050611cae81611c8a565b92915050565b5f5f60408385031215611cca57611cc961197e565b5b5f611cd785828601611b95565b9250506020611ce885828601611ca0565b9150509250929050565b5f5ffd5b5f5ffd5b7f4e487b71000000000000000000000000000000000000000000000000000000005f52604160045260245ffd5b611d3082611a61565b810181811067ffffffffffffffff82111715611d4f57611d4e611cfa565b5b80604052505050565b5f611d61611975565b9050611d6d8282611d27565b919050565b5f67ffffffffffffffff821115611d8c57611d8b611cfa565b5b611d9582611a61565b9050602081019050919050565b828183375f83830152505050565b5f611dc2611dbd84611d72565b611d58565b905082815260208101848484011115611dde57611ddd611cf6565b5b611de9848285611da2565b509392505050565b5f82601f830112611e0557611e04611cf2565b5b8135611e15848260208601611db0565b91505092915050565b5f5f5f5f60808587031215611e3657611e3561197e565b5b5f611e4387828801611b95565b9450506020611e5487828801611b95565b9350506040611e6587828801611ae8565b925050606085013567ffffffffffffffff811115611e8657611e85611982565b5b611e9287828801611df1565b91505092959194509250565b5f67ffffffffffffffff821115611eb857611eb7611cfa565b5b611ec182611a61565b9050602081019050919050565b5f611ee0611edb84611e9e565b611d58565b905082815260208101848484011115611efc57611efb611cf6565b5b611f07848285611da2565b509392505050565b5f82601f830112611f2357611f22611cf2565b5b8135611f33848260208601611ece565b91505092915050565b5f60208284031215611f5157611f5061197e565b5b5f82013567ffffffffffffffff811115611f6e57611f6d611982565b5b611f7a84828501611f0f565b91505092915050565b5f5f60408385031215611f9957611f9861197e565b5b5f611fa685828601611b95565b9250506020611fb785828601611b95565b9150509250929050565b7f4e487b71000000000000000000000000000000000000000000000000000000005f52602260045260245ffd5b5f600282049050600182168061200557607f821691505b60208210810361201857612017611fc1565b5b50919050565b5f6060820190506120315f830186611b57565b61203e6020830185611c62565b61204b6040830184611b57565b949350505050565b7f4e6f74206f776e657200000000000000000000000000000000000000000000005f82015250565b5f612087600983611a43565b915061209282612053565b602082019050919050565b5f6020820190508181035f8301526120b48161207b565b9050919050565b7f4e465420646f6573206e6f7420657869737400000000000000000000000000005f82015250565b5f6120ef601283611a43565b91506120fa826120bb565b602082019050919050565b5f6020820190508181035f83015261211c816120e3565b9050919050565b7f4e487b71000000000000000000000000000000000000000000000000000000005f52601160045260245ffd5b5f61215a82611ac9565b91507fffffffffffffffffffffffffffffffffffffffffffffffffffffffffffffffff820361218c5761218b612123565b5b600182019050919050565b5f819050815f5260205f209050919050565b5f6020601f8301049050919050565b5f82821b905092915050565b5f600883026121f37fffffffffffffffffffffffffffffffffffffffffffffffffffffffffffffffff826121b8565b6121fd86836121b8565b95508019841693508086168417925050509392505050565b5f819050919050565b5f61223861223361222e84611ac9565b612215565b611ac9565b9050919050565b5f819050919050565b6122518361221e565b61226561225d8261223f565b8484546121c4565b825550505050565b5f5f905090565b61227c61226d565b612287818484612248565b505050565b5b818110156122aa5761229f5f82612274565b60018101905061228d565b5050565b601f8211156122ef576122c081612197565b6122c9846121a9565b810160208510156122d8578190505b6122ec6122e4856121a9565b83018261228c565b50505b505050565b5f82821c905092915050565b5f61230f5f19846008026122f4565b1980831691505092915050565b5f6123278383612300565b9150826002028217905092915050565b61234082611a39565b67ffffffffffffffff81111561235957612358611cfa565b5b6123638254611fee565b61236e8282856122ae565b5f60209050601f83116001811461239f575f841561238d578287015190505b612397858261231c565b8655506123fe565b601f1984166123ad86612197565b5f5b828110156123d4578489015182556001820191506020850194506020810190506123af565b868310156123f157848901516123ed601f891682612300565b8355505b6001600288020188555050505b505050505050565b5f6040820190506124195f830185611c62565b818103602083015261242b8184611a71565b90509392505050565b5f81519050919050565b5f82825260208201905092915050565b5f61245882612434565b612462818561243e565b9350612472818560208601611a53565b61247b81611a61565b840191505092915050565b5f6080820190506124995f830187611b57565b6124a66020830186611b57565b6124b36040830185611c62565b81810360608301526124c5818461244e565b905095945050505050565b5f815190506124de816119b1565b92915050565b5f602082840312156124f9576124f861197e565b5b5f612506848285016124d0565b91505092915050565b5f6040820190506125225f830185611b57565b61252f6020830184611c62565b939250505056fea26469706673582212206c911c7d67db362afc96ff12c991c127baddfec5f93947732e217ff46bbb528464736f6c634300081c0033",
  "linkReferences": {},
  "deployedLinkReferences": {},
  "immutableReferences": {},
  "inputSourceName": "project/contracts/PawNFT.sol",
  "buildInfoId": "solc-0_8_28-3dd86e77c4dd27e080a44937cd63c4790d3f327c"
}